{
  "contractName": "FundsHolder",
  "abi": [
    {
      "constant": true,
      "inputs": [
        {
          "name": "",
          "type": "uint256"
        }
      ],
      "name": "owners",
      "outputs": [
        {
          "name": "",
          "type": "address"
        }
      ],
      "payable": false,
      "stateMutability": "view",
      "type": "function"
    },
    {
      "constant": true,
      "inputs": [],
      "name": "owner",
      "outputs": [
        {
          "name": "",
          "type": "address"
        }
      ],
      "payable": false,
      "stateMutability": "view",
      "type": "function"
    },
    {
      "constant": true,
      "inputs": [
        {
          "name": "",
          "type": "address"
        }
      ],
      "name": "balance",
      "outputs": [
        {
          "name": "",
          "type": "uint256"
        }
      ],
      "payable": false,
      "stateMutability": "view",
      "type": "function"
    },
    {
      "constant": false,
      "inputs": [
        {
          "name": "newOwner",
          "type": "address"
        }
      ],
      "name": "transferOwnership",
      "outputs": [],
      "payable": false,
      "stateMutability": "nonpayable",
      "type": "function"
    },
    {
      "constant": true,
      "inputs": [],
      "name": "token",
      "outputs": [
        {
          "name": "",
          "type": "address"
        }
      ],
      "payable": false,
      "stateMutability": "view",
      "type": "function"
    },
    {
      "inputs": [
        {
          "name": "_token",
          "type": "address"
        }
      ],
      "payable": false,
      "stateMutability": "nonpayable",
      "type": "constructor"
    },
    {
      "anonymous": false,
      "inputs": [
        {
          "indexed": true,
          "name": "previousOwner",
          "type": "address"
        },
        {
          "indexed": true,
          "name": "newOwner",
          "type": "address"
        }
      ],
      "name": "OwnershipTransferred",
      "type": "event"
    },
    {
      "constant": false,
      "inputs": [],
      "name": "withdraw",
      "outputs": [],
      "payable": false,
      "stateMutability": "nonpayable",
      "type": "function"
    },
    {
      "constant": true,
      "inputs": [
        {
          "name": "_address",
          "type": "address"
        }
      ],
      "name": "isAddressOwner",
      "outputs": [
        {
          "name": "",
          "type": "bool"
        }
      ],
      "payable": false,
      "stateMutability": "view",
      "type": "function"
    }
  ],
  "bytecode": "0x608060405260c06040519081016040528073535145e644d8d25e50dda49fb80c37d08c9862fe73ffffffffffffffffffffffffffffffffffffffff1673ffffffffffffffffffffffffffffffffffffffff168152602001734dc782f14bd27e63f1e0339b582a96d53df6c55f73ffffffffffffffffffffffffffffffffffffffff1673ffffffffffffffffffffffffffffffffffffffff16815260200173a68358c42626f4e31820c30b09b27c4649670de673ffffffffffffffffffffffffffffffffffffffff1673ffffffffffffffffffffffffffffffffffffffff1681526020017318f7e6b5a9b39895b7f38d696c702cd290d5d77c73ffffffffffffffffffffffffffffffffffffffff1673ffffffffffffffffffffffffffffffffffffffff1681526020017323c6599aadf44be7cbad6d9051bb4c2255b2f71373ffffffffffffffffffffffffffffffffffffffff1673ffffffffffffffffffffffffffffffffffffffff168152602001731bacae51d1aff3b16e0392a31cba07e1df8eab9573ffffffffffffffffffffffffffffffffffffffff1673ffffffffffffffffffffffffffffffffffffffff168152506002906006620001c4929190620006f7565b50737a9dbead85731d7ec80d28e63ae6bacca99f948e600860006101000a81548173ffffffffffffffffffffffffffffffffffffffff021916908373ffffffffffffffffffffffffffffffffffffffff16021790555061dead600960006101000a81548173ffffffffffffffffffffffffffffffffffffffff021916908373ffffffffffffffffffffffffffffffffffffffff1602179055503480156200026a57600080fd5b5060405160208062001a4b83398101806040528101908080519060200190929190505050336000806101000a81548173ffffffffffffffffffffffffffffffffffffffff021916908373ffffffffffffffffffffffffffffffffffffffff160217905550600073ffffffffffffffffffffffffffffffffffffffff168173ffffffffffffffffffffffffffffffffffffffff161415151562000374576040517f08c379a000000000000000000000000000000000000000000000000000000000815260040180806020018281038252601c8152602001807f546f6b656e20616464726573732063616e6e6f74206265207a65726f0000000081525060200191505060405180910390fd5b80600160006101000a81548173ffffffffffffffffffffffffffffffffffffffff021916908373ffffffffffffffffffffffffffffffffffffffff1602179055506001600b600060026000600681101515620003cc57fe5b0160009054906101000a900473ffffffffffffffffffffffffffffffffffffffff1673ffffffffffffffffffffffffffffffffffffffff1673ffffffffffffffffffffffffffffffffffffffff16815260200190815260200160002060006101000a81548160ff0219169083151502179055506001600b6000600260016006811015156200045657fe5b0160009054906101000a900473ffffffffffffffffffffffffffffffffffffffff1673ffffffffffffffffffffffffffffffffffffffff1673ffffffffffffffffffffffffffffffffffffffff16815260200190815260200160002060006101000a81548160ff0219169083151502179055506001600b6000600280600681101515620004df57fe5b0160009054906101000a900473ffffffffffffffffffffffffffffffffffffffff1673ffffffffffffffffffffffffffffffffffffffff1673ffffffffffffffffffffffffffffffffffffffff16815260200190815260200160002060006101000a81548160ff0219169083151502179055506001600b6000600260036006811015156200056957fe5b0160009054906101000a900473ffffffffffffffffffffffffffffffffffffffff1673ffffffffffffffffffffffffffffffffffffffff1673ffffffffffffffffffffffffffffffffffffffff16815260200190815260200160002060006101000a81548160ff0219169083151502179055506001600b600060026004600681101515620005f357fe5b0160009054906101000a900473ffffffffffffffffffffffffffffffffffffffff1673ffffffffffffffffffffffffffffffffffffffff1673ffffffffffffffffffffffffffffffffffffffff16815260200190815260200160002060006101000a81548160ff0219169083151502179055506001600b6000600260056006811015156200067d57fe5b0160009054906101000a900473ffffffffffffffffffffffffffffffffffffffff1673ffffffffffffffffffffffffffffffffffffffff1673ffffffffffffffffffffffffffffffffffffffff16815260200190815260200160002060006101000a81548160ff02191690831515021790555050620007bf565b826006810192821562000766579160200282015b82811115620007655782518260006101000a81548173ffffffffffffffffffffffffffffffffffffffff021916908373ffffffffffffffffffffffffffffffffffffffff160217905550916020019190600101906200070b565b5b50905062000775919062000779565b5090565b620007bc91905b80821115620007b857600081816101000a81549073ffffffffffffffffffffffffffffffffffffffff02191690555060010162000780565b5090565b90565b61127c80620007cf6000396000f300608060405260043610610083576000357c0100000000000000000000000000000000000000000000000000000000900463ffffffff168063025e7c27146100885780633511de41146100f55780633ccfd60b146101505780638da5cb5b14610167578063e3d670d7146101be578063f2fde38b14610215578063fc0c546a14610258575b600080fd5b34801561009457600080fd5b506100b3600480360381019080803590602001909291905050506102af565b604051808273ffffffffffffffffffffffffffffffffffffffff1673ffffffffffffffffffffffffffffffffffffffff16815260200191505060405180910390f35b34801561010157600080fd5b50610136600480360381019080803573ffffffffffffffffffffffffffffffffffffffff1690602001909291905050506102e4565b604051808215151515815260200191505060405180910390f35b34801561015c57600080fd5b5061016561033a565b005b34801561017357600080fd5b5061017c61102f565b604051808273ffffffffffffffffffffffffffffffffffffffff1673ffffffffffffffffffffffffffffffffffffffff16815260200191505060405180910390f35b3480156101ca57600080fd5b506101ff600480360381019080803573ffffffffffffffffffffffffffffffffffffffff169060200190929190505050611054565b6040518082815260200191505060405180910390f35b34801561022157600080fd5b50610256600480360381019080803573ffffffffffffffffffffffffffffffffffffffff16906020019092919050505061106c565b005b34801561026457600080fd5b5061026d61122a565b604051808273ffffffffffffffffffffffffffffffffffffffff1673ffffffffffffffffffffffffffffffffffffffff16815260200191505060405180910390f35b6002816006811015156102be57fe5b016000915054906101000a900473ffffffffffffffffffffffffffffffffffffffff1681565b6000600b60008373ffffffffffffffffffffffffffffffffffffffff1673ffffffffffffffffffffffffffffffffffffffff16815260200190815260200160002060009054906101000a900460ff169050919050565b6000806000600b60003373ffffffffffffffffffffffffffffffffffffffff1673ffffffffffffffffffffffffffffffffffffffff16815260200190815260200160002060009054906101000a900460ff161515610400576040517f08c379a00000000000000000000000000000000000000000000000000000000081526004018080602001828103825260138152602001807f53656e646572206973206e6f74206f776e65720000000000000000000000000081525060200191505060405180910390fd5b6000600160009054906101000a900473ffffffffffffffffffffffffffffffffffffffff1673ffffffffffffffffffffffffffffffffffffffff166370a08231306040518263ffffffff167c0100000000000000000000000000000000000000000000000000000000028152600401808273ffffffffffffffffffffffffffffffffffffffff1673ffffffffffffffffffffffffffffffffffffffff168152602001915050602060405180830381600087803b1580156104bf57600080fd5b505af11580156104d3573d6000803e3d6000fd5b505050506040513d60208110156104e957600080fd5b8101908080519060200190929190505050111515610595576040517f08c379a00000000000000000000000000000000000000000000000000000000081526004018080602001828103825260228152602001807f436f6e747261637420646f6573206e6f74206861766520616e792062616c616e81526020017f636500000000000000000000000000000000000000000000000000000000000081525060400191505060405180910390fd5b6002600160009054906101000a900473ffffffffffffffffffffffffffffffffffffffff1673ffffffffffffffffffffffffffffffffffffffff166370a08231306040518263ffffffff167c0100000000000000000000000000000000000000000000000000000000028152600401808273ffffffffffffffffffffffffffffffffffffffff1673ffffffffffffffffffffffffffffffffffffffff168152602001915050602060405180830381600087803b15801561065457600080fd5b505af1158015610668573d6000803e3d6000fd5b505050506040513d602081101561067e57600080fd5b810190808051906020019092919050505081151561069857fe5b0492506006838115156106a757fe5b0491506002838115156106b657fe5b049050600160009054906101000a900473ffffffffffffffffffffffffffffffffffffffff1673ffffffffffffffffffffffffffffffffffffffff1663a9059cbb6002600060068110151561070757fe5b0160009054906101000a900473ffffffffffffffffffffffffffffffffffffffff16846040518363ffffffff167c0100000000000000000000000000000000000000000000000000000000028152600401808373ffffffffffffffffffffffffffffffffffffffff1673ffffffffffffffffffffffffffffffffffffffff16815260200182815260200192505050602060405180830381600087803b1580156107af57600080fd5b505af11580156107c3573d6000803e3d6000fd5b505050506040513d60208110156107d957600080fd5b810190808051906020019092919050505050600160009054906101000a900473ffffffffffffffffffffffffffffffffffffffff1673ffffffffffffffffffffffffffffffffffffffff1663a9059cbb6002600160068110151561083957fe5b0160009054906101000a900473ffffffffffffffffffffffffffffffffffffffff16846040518363ffffffff167c0100000000000000000000000000000000000000000000000000000000028152600401808373ffffffffffffffffffffffffffffffffffffffff1673ffffffffffffffffffffffffffffffffffffffff16815260200182815260200192505050602060405180830381600087803b1580156108e157600080fd5b505af11580156108f5573d6000803e3d6000fd5b505050506040513d602081101561090b57600080fd5b810190808051906020019092919050505050600160009054906101000a900473ffffffffffffffffffffffffffffffffffffffff1673ffffffffffffffffffffffffffffffffffffffff1663a9059cbb60028060068110151561096a57fe5b0160009054906101000a900473ffffffffffffffffffffffffffffffffffffffff16846040518363ffffffff167c0100000000000000000000000000000000000000000000000000000000028152600401808373ffffffffffffffffffffffffffffffffffffffff1673ffffffffffffffffffffffffffffffffffffffff16815260200182815260200192505050602060405180830381600087803b158015610a1257600080fd5b505af1158015610a26573d6000803e3d6000fd5b505050506040513d6020811015610a3c57600080fd5b810190808051906020019092919050505050600160009054906101000a900473ffffffffffffffffffffffffffffffffffffffff1673ffffffffffffffffffffffffffffffffffffffff1663a9059cbb60026003600681101515610a9c57fe5b0160009054906101000a900473ffffffffffffffffffffffffffffffffffffffff16846040518363ffffffff167c0100000000000000000000000000000000000000000000000000000000028152600401808373ffffffffffffffffffffffffffffffffffffffff1673ffffffffffffffffffffffffffffffffffffffff16815260200182815260200192505050602060405180830381600087803b158015610b4457600080fd5b505af1158015610b58573d6000803e3d6000fd5b505050506040513d6020811015610b6e57600080fd5b810190808051906020019092919050505050600160009054906101000a900473ffffffffffffffffffffffffffffffffffffffff1673ffffffffffffffffffffffffffffffffffffffff1663a9059cbb60026004600681101515610bce57fe5b0160009054906101000a900473ffffffffffffffffffffffffffffffffffffffff16846040518363ffffffff167c0100000000000000000000000000000000000000000000000000000000028152600401808373ffffffffffffffffffffffffffffffffffffffff1673ffffffffffffffffffffffffffffffffffffffff16815260200182815260200192505050602060405180830381600087803b158015610c7657600080fd5b505af1158015610c8a573d6000803e3d6000fd5b505050506040513d6020811015610ca057600080fd5b810190808051906020019092919050505050600160009054906101000a900473ffffffffffffffffffffffffffffffffffffffff1673ffffffffffffffffffffffffffffffffffffffff1663a9059cbb60026005600681101515610d0057fe5b0160009054906101000a900473ffffffffffffffffffffffffffffffffffffffff16846040518363ffffffff167c0100000000000000000000000000000000000000000000000000000000028152600401808373ffffffffffffffffffffffffffffffffffffffff1673ffffffffffffffffffffffffffffffffffffffff16815260200182815260200192505050602060405180830381600087803b158015610da857600080fd5b505af1158015610dbc573d6000803e3d6000fd5b505050506040513d6020811015610dd257600080fd5b810190808051906020019092919050505050600160009054906101000a900473ffffffffffffffffffffffffffffffffffffffff1673ffffffffffffffffffffffffffffffffffffffff1663a9059cbb600960009054906101000a900473ffffffffffffffffffffffffffffffffffffffff16836040518363ffffffff167c0100000000000000000000000000000000000000000000000000000000028152600401808373ffffffffffffffffffffffffffffffffffffffff1673ffffffffffffffffffffffffffffffffffffffff16815260200182815260200192505050602060405180830381600087803b158015610ecb57600080fd5b505af1158015610edf573d6000803e3d6000fd5b505050506040513d6020811015610ef557600080fd5b810190808051906020019092919050505050600160009054906101000a900473ffffffffffffffffffffffffffffffffffffffff1673ffffffffffffffffffffffffffffffffffffffff1663a9059cbb600860009054906101000a900473ffffffffffffffffffffffffffffffffffffffff16836040518363ffffffff167c0100000000000000000000000000000000000000000000000000000000028152600401808373ffffffffffffffffffffffffffffffffffffffff1673ffffffffffffffffffffffffffffffffffffffff16815260200182815260200192505050602060405180830381600087803b158015610fee57600080fd5b505af1158015611002573d6000803e3d6000fd5b505050506040513d602081101561101857600080fd5b810190808051906020019092919050505050505050565b6000809054906101000a900473ffffffffffffffffffffffffffffffffffffffff1681565b600a6020528060005260406000206000915090505481565b6000809054906101000a900473ffffffffffffffffffffffffffffffffffffffff1673ffffffffffffffffffffffffffffffffffffffff163373ffffffffffffffffffffffffffffffffffffffff16141515611130576040517f08c379a000000000000000000000000000000000000000000000000000000000815260040180806020018281038252601c8152602001807f53656e646572206973206e6f7420636f6e7472616374206f776e65720000000081525060200191505060405180910390fd5b600073ffffffffffffffffffffffffffffffffffffffff168173ffffffffffffffffffffffffffffffffffffffff161415151561116c57600080fd5b8073ffffffffffffffffffffffffffffffffffffffff166000809054906101000a900473ffffffffffffffffffffffffffffffffffffffff1673ffffffffffffffffffffffffffffffffffffffff167f8be0079c531659141344cd1fd0a4f28419497f9722a3daafe3b4186f6b6457e060405160405180910390a3806000806101000a81548173ffffffffffffffffffffffffffffffffffffffff021916908373ffffffffffffffffffffffffffffffffffffffff16021790555050565b600160009054906101000a900473ffffffffffffffffffffffffffffffffffffffff16815600a165627a7a723058205f0c8f673163556b01ef318a3c367af6ae1ae89c5c3db6419b02a7184631be080029",
  "source": "pragma solidity ^0.4.25;\r\n\r\nimport \"./SafeMath.sol\";\r\nimport \"./Ownable.sol\";\r\nimport \"../ERC20/ERC20.sol\";\r\n\r\n/**\r\n * @title Contract to hold long term persistent data\r\n */\r\ncontract FundsHolder is Ownable {\r\n    using SafeMath for uint256;\r\n\r\n    address public token;\r\n    address[6] public owners = [\r\n        0x535145e644d8d25E50DdA49Fb80c37D08C9862fE,\r\n        0x4dc782F14bd27e63f1e0339B582a96d53df6C55f,\r\n        0xa68358C42626f4e31820C30B09B27c4649670DE6,\r\n        0x18f7e6B5A9b39895B7f38D696C702Cd290d5D77C,\r\n        0x23C6599aAdF44Be7cbaD6D9051bb4C2255b2f713,\r\n        0x1baCaE51d1AFf3B16E0392a31CbA07E1dF8eab95\r\n    ];\r\n    address community = 0x7A9dbEAd85731D7ec80D28e63aE6bACCA99F948E;\r\n    address burnAddress = 0x000000000000000000000000000000000000dEaD;\r\n\r\n\r\n    mapping (address => uint256) public balance;\r\n    mapping(address => bool) isOwner; /** All involved on the project that will get revenue */\r\n\r\n\r\n    modifier onlyOwners() {\r\n        require(isOwner[msg.sender], \"Sender is not owner\");\r\n        _;\r\n    }\r\n\r\n    constructor(address _token) public {\r\n        require(_token != address(0), \"Token address cannot be zero\");\r\n        token = _token;\r\n        isOwner[owners[0]] = true; //DAN\r\n        isOwner[owners[1]] = true; //Soren\r\n        isOwner[owners[2]] = true; //Mark\r\n        isOwner[owners[3]] = true; //Marwan\r\n        isOwner[owners[4]] = true; //Santiago\r\n        isOwner[owners[5]] = true; //Tom\r\n    }\r\n\r\n    function withdraw() external onlyOwners {\r\n        require(ERC20(token).balanceOf(this) > 0, \"Contract does not have any balance\");\r\n        uint256 half = ERC20(token).balanceOf(this)/2;\r\n        uint256 amount = half/6;\r\n        uint256 percent25 = half/2;\r\n        ERC20(token).transfer(owners[0], amount);\r\n        ERC20(token).transfer(owners[1], amount);\r\n        ERC20(token).transfer(owners[2], amount);\r\n        ERC20(token).transfer(owners[3], amount);\r\n        ERC20(token).transfer(owners[4], amount);\r\n        ERC20(token).transfer(owners[5], amount);\r\n        ERC20(token).transfer(burnAddress, percent25); //burn 25%\r\n        ERC20(token).transfer(community, percent25);\r\n    }\r\n\r\n    function isAddressOwner(address _address) public view returns (bool) {\r\n        return isOwner[_address];\r\n    }\r\n}",
  "sourcePath": "E:\\Ethereum\\METM\\MetamorphTokenCreation\\src\\app\\ethereum\\contracts\\utils\\FundsHolder.sol",
  "compiler": {
    "name": "solc",
    "version": "0.4.25+commit.59dbf8f1.Emscripten.clang"
  },
  "schemaVersion": "2.0.2",
  "updatedAt": "2019-07-17T04:10:05.539Z"
}