{
  "contractName": "MetamorphRegulatedTokenFactory",
  "abi": [
    {
      "constant": true,
      "inputs": [],
      "name": "metmToken",
      "outputs": [
        {
          "name": "",
          "type": "address"
        }
      ],
      "payable": false,
      "stateMutability": "view",
      "type": "function"
    },
    {
      "constant": true,
      "inputs": [],
      "name": "owner",
      "outputs": [
        {
          "name": "",
          "type": "address"
        }
      ],
      "payable": false,
      "stateMutability": "view",
      "type": "function"
    },
    {
      "constant": true,
      "inputs": [],
      "name": "price",
      "outputs": [
        {
          "name": "",
          "type": "uint256"
        }
      ],
      "payable": false,
      "stateMutability": "view",
      "type": "function"
    },
    {
      "constant": true,
      "inputs": [
        {
          "name": "",
          "type": "uint256"
        }
      ],
      "name": "tickers",
      "outputs": [
        {
          "name": "",
          "type": "address"
        }
      ],
      "payable": false,
      "stateMutability": "view",
      "type": "function"
    },
    {
      "constant": false,
      "inputs": [
        {
          "name": "newOwner",
          "type": "address"
        }
      ],
      "name": "transferOwnership",
      "outputs": [],
      "payable": false,
      "stateMutability": "nonpayable",
      "type": "function"
    },
    {
      "inputs": [
        {
          "name": "_token",
          "type": "address"
        },
        {
          "name": "_price",
          "type": "uint256"
        },
        {
          "name": "_fundsHolder",
          "type": "address"
        }
      ],
      "payable": false,
      "stateMutability": "nonpayable",
      "type": "constructor"
    },
    {
      "anonymous": false,
      "inputs": [
        {
          "indexed": true,
          "name": "previousOwner",
          "type": "address"
        },
        {
          "indexed": true,
          "name": "newOwner",
          "type": "address"
        }
      ],
      "name": "OwnershipTransferred",
      "type": "event"
    },
    {
      "anonymous": false,
      "inputs": [
        {
          "indexed": true,
          "name": "_issuer",
          "type": "address"
        },
        {
          "indexed": false,
          "name": "_symbol",
          "type": "string"
        },
        {
          "indexed": false,
          "name": "_name",
          "type": "string"
        }
      ],
      "name": "Issued",
      "type": "event"
    },
    {
      "constant": false,
      "inputs": [
        {
          "name": "_fundsHolder",
          "type": "address"
        }
      ],
      "name": "setFundsHolderAddress",
      "outputs": [],
      "payable": false,
      "stateMutability": "nonpayable",
      "type": "function"
    },
    {
      "constant": false,
      "inputs": [
        {
          "name": "_price",
          "type": "uint256"
        }
      ],
      "name": "setPrice",
      "outputs": [],
      "payable": false,
      "stateMutability": "nonpayable",
      "type": "function"
    },
    {
      "constant": false,
      "inputs": [
        {
          "name": "_symbol",
          "type": "string"
        },
        {
          "name": "_name",
          "type": "string"
        },
        {
          "name": "_regulatorRegistry",
          "type": "address"
        }
      ],
      "name": "createToken",
      "outputs": [],
      "payable": false,
      "stateMutability": "nonpayable",
      "type": "function"
    },
    {
      "constant": true,
      "inputs": [
        {
          "name": "_issuer",
          "type": "address"
        }
      ],
      "name": "getAlltokens",
      "outputs": [
        {
          "name": "",
          "type": "address[]"
        }
      ],
      "payable": false,
      "stateMutability": "view",
      "type": "function"
    },
    {
      "constant": true,
      "inputs": [
        {
          "name": "_issuer",
          "type": "address"
        },
        {
          "name": "_token",
          "type": "address"
        }
      ],
      "name": "getInfo",
      "outputs": [
        {
          "name": "",
          "type": "uint256"
        },
        {
          "name": "",
          "type": "string"
        },
        {
          "name": "",
          "type": "string"
        },
        {
          "name": "",
          "type": "uint8"
        },
        {
          "name": "",
          "type": "uint256"
        },
        {
          "name": "",
          "type": "uint256"
        }
      ],
      "payable": false,
      "stateMutability": "view",
      "type": "function"
    },
    {
      "constant": true,
      "inputs": [],
      "name": "getNumOfTokens",
      "outputs": [
        {
          "name": "",
          "type": "uint256"
        }
      ],
      "payable": false,
      "stateMutability": "view",
      "type": "function"
    },
    {
      "constant": true,
      "inputs": [],
      "name": "getNumOfIssuers",
      "outputs": [
        {
          "name": "",
          "type": "uint256"
        }
      ],
      "payable": false,
      "stateMutability": "view",
      "type": "function"
    },
    {
      "constant": true,
      "inputs": [],
      "name": "getFundsHolderAddress",
      "outputs": [
        {
          "name": "",
          "type": "address"
        }
      ],
      "payable": false,
      "stateMutability": "view",
      "type": "function"
    },
    {
      "constant": true,
      "inputs": [
        {
          "name": "_symbol",
          "type": "string"
        }
      ],
      "name": "getIssuer",
      "outputs": [
        {
          "name": "issuer",
          "type": "address"
        }
      ],
      "payable": false,
      "stateMutability": "view",
      "type": "function"
    }
  ],
  "bytecode": "0x608060405234801561001057600080fd5b50604051606080614a6983398101806040528101908080519060200190929190805190602001909291908051906020019092919050505033600860006101000a81548173ffffffffffffffffffffffffffffffffffffffff021916908373ffffffffffffffffffffffffffffffffffffffff160217905550600073ffffffffffffffffffffffffffffffffffffffff168373ffffffffffffffffffffffffffffffffffffffff161415151561012d576040517f08c379a00000000000000000000000000000000000000000000000000000000081526004018080602001828103825260198152602001807f546f6b656e20616464726573732063616e6e6f7420626520300000000000000081525060200191505060405180910390fd5b6000821115156101a5576040517f08c379a000000000000000000000000000000000000000000000000000000000815260040180806020018281038252601b8152602001807f70726963652073686f756c64206265206d6f7265207468616e2030000000000081525060200191505060405180910390fd5b600073ffffffffffffffffffffffffffffffffffffffff168173ffffffffffffffffffffffffffffffffffffffff1614151515610270576040517f08c379a00000000000000000000000000000000000000000000000000000000081526004018080602001828103825260228152602001807f46756e6473486f6c64657220616464726573732063616e6e6f74206265207a6581526020017f726f00000000000000000000000000000000000000000000000000000000000081525060400191505060405180910390fd5b826000806101000a81548173ffffffffffffffffffffffffffffffffffffffff021916908373ffffffffffffffffffffffffffffffffffffffff1602179055508160038190555080600460006101000a81548173ffffffffffffffffffffffffffffffffffffffff021916908373ffffffffffffffffffffffffffffffffffffffff16021790555050505061475f8061030a6000396000f300608060405260043610620000df576000357c0100000000000000000000000000000000000000000000000000000000900463ffffffff1680633e9d569814620000e457806351240971146200013e5780637d3dae69146200016c57806380793ab814620001c65780638da5cb5b146200027257806391b7f5ed14620002cc578063944a150014620002fc578063a035b1fe1462000399578063a22a83de14620003c7578063afd8fd5f146200040d578063c45c98e21462000483578063c686554e14620004f3578063f2fde38b1462000666578063f92d575614620006ac575b600080fd5b348015620000f157600080fd5b50620000fc620006da565b604051808273ffffffffffffffffffffffffffffffffffffffff1673ffffffffffffffffffffffffffffffffffffffff16815260200191505060405180910390f35b3480156200014b57600080fd5b506200015662000704565b6040518082815260200191505060405180910390f35b3480156200017957600080fd5b506200018462000711565b604051808273ffffffffffffffffffffffffffffffffffffffff1673ffffffffffffffffffffffffffffffffffffffff16815260200191505060405180910390f35b348015620001d357600080fd5b5062000230600480360381019080803590602001908201803590602001908080601f016020809104026020016040519081016040528093929190818152602001838380828437820191505050505050919291929050505062000736565b604051808273ffffffffffffffffffffffffffffffffffffffff1673ffffffffffffffffffffffffffffffffffffffff16815260200191505060405180910390f35b3480156200027f57600080fd5b506200028a6200084e565b604051808273ffffffffffffffffffffffffffffffffffffffff1673ffffffffffffffffffffffffffffffffffffffff16815260200191505060405180910390f35b348015620002d957600080fd5b50620002fa6004803603810190808035906020019092919050505062000874565b005b3480156200030957600080fd5b5062000340600480360381019080803573ffffffffffffffffffffffffffffffffffffffff169060200190929190505050620009bd565b6040518080602001828103825283818151815260200191508051906020019060200280838360005b838110156200038557808201518184015260208101905062000368565b505050509050019250505060405180910390f35b348015620003a657600080fd5b50620003b162000a8c565b6040518082815260200191505060405180910390f35b348015620003d457600080fd5b506200040b600480360381019080803573ffffffffffffffffffffffffffffffffffffffff16906020019092919050505062000a92565b005b3480156200041a57600080fd5b5062000481600480360381019080803590602001908201803590602001919091929391929390803590602001908201803590602001919091929391929390803573ffffffffffffffffffffffffffffffffffffffff16906020019092919050505062000c42565b005b3480156200049057600080fd5b50620004b160048036038101908080359060200190929190505050620018c6565b604051808273ffffffffffffffffffffffffffffffffffffffff1673ffffffffffffffffffffffffffffffffffffffff16815260200191505060405180910390f35b3480156200050057600080fd5b5062000557600480360381019080803573ffffffffffffffffffffffffffffffffffffffff169060200190929190803573ffffffffffffffffffffffffffffffffffffffff169060200190929190505050620018f9565b6040518087815260200180602001806020018660ff1660ff168152602001858152602001848152602001838103835288818151815260200191508051906020019080838360005b83811015620005bb5780820151818401526020810190506200059e565b50505050905090810190601f168015620005e95780820380516001836020036101000a031916815260200191505b50838103825287818151815260200191508051906020019080838360005b838110156200062457808201518184015260208101905062000607565b50505050905090810190601f168015620006525780820380516001836020036101000a031916815260200191505b509850505050505050505060405180910390f35b3480156200067357600080fd5b50620006aa600480360381019080803573ffffffffffffffffffffffffffffffffffffffff16906020019092919050505062001cc8565b005b348015620006b957600080fd5b50620006c462001e8b565b6040518082815260200191505060405180910390f35b6000600460009054906101000a900473ffffffffffffffffffffffffffffffffffffffff16905090565b6000600280549050905090565b6000809054906101000a900473ffffffffffffffffffffffffffffffffffffffff1681565b600080826040516020018082805190602001908083835b6020831015156200077457805182526020820191506020810190506020830392506200074d565b6001836020036101000a0380198251168184511680821785525050505050509050019150506040516020818303038152906040526040518082805190602001908083835b602083101515620007df5780518252602082019150602081019050602083039250620007b8565b6001836020036101000a03801982511681845116808217855250505050505090500191505060405180910390206001900490506007600082815260200190815260200160002060009054906101000a900473ffffffffffffffffffffffffffffffffffffffff16915050919050565b600860009054906101000a900473ffffffffffffffffffffffffffffffffffffffff1681565b600860009054906101000a900473ffffffffffffffffffffffffffffffffffffffff1673ffffffffffffffffffffffffffffffffffffffff163373ffffffffffffffffffffffffffffffffffffffff161415156200093a576040517f08c379a000000000000000000000000000000000000000000000000000000000815260040180806020018281038252601c8152602001807f53656e646572206973206e6f7420636f6e7472616374206f776e65720000000081525060200191505060405180910390fd5b600081111515620009b3576040517f08c379a00000000000000000000000000000000000000000000000000000000081526004018080602001828103825260118152602001807f50726963652063616e6e6f74206265203000000000000000000000000000000081525060200191505060405180910390fd5b8060038190555050565b6060600560008373ffffffffffffffffffffffffffffffffffffffff1673ffffffffffffffffffffffffffffffffffffffff16815260200190815260200160002080548060200260200160405190810160405280929190818152602001828054801562000a8057602002820191906000526020600020905b8160009054906101000a900473ffffffffffffffffffffffffffffffffffffffff1673ffffffffffffffffffffffffffffffffffffffff168152602001906001019080831162000a35575b50505050509050919050565b60035481565b600860009054906101000a900473ffffffffffffffffffffffffffffffffffffffff1673ffffffffffffffffffffffffffffffffffffffff163373ffffffffffffffffffffffffffffffffffffffff1614151562000b58576040517f08c379a000000000000000000000000000000000000000000000000000000000815260040180806020018281038252601c8152602001807f53656e646572206973206e6f7420636f6e7472616374206f776e65720000000081525060200191505060405180910390fd5b600073ffffffffffffffffffffffffffffffffffffffff168173ffffffffffffffffffffffffffffffffffffffff161415151562000bfe576040517f08c379a00000000000000000000000000000000000000000000000000000000081526004018080602001828103825260148152602001807f616464726573732063616e6e6f7420626520307800000000000000000000000081525060200191505060405180910390fd5b80600460006101000a81548173ffffffffffffffffffffffffffffffffffffffff021916908373ffffffffffffffffffffffffffffffffffffffff16021790555050565b600080600062000c5162001e98565b6002898990501015801562000c6a575060048989905011155b151562000d05576040517f08c379a00000000000000000000000000000000000000000000000000000000081526004018080602001828103825260238152602001807f53796d626f6c206c656e6774682073686f756c64206265206d6f72652074686181526020017f6e2032000000000000000000000000000000000000000000000000000000000081525060400191505060405180910390fd5b6002878790501015151562000da8576040517f08c379a00000000000000000000000000000000000000000000000000000000081526004018080602001828103825260218152602001807f4e616d65206c656e6774682073686f756c64206265206d6f7265207468616e2081526020017f320000000000000000000000000000000000000000000000000000000000000081525060400191505060405180910390fd5b600073ffffffffffffffffffffffffffffffffffffffff168573ffffffffffffffffffffffffffffffffffffffff161415151562000e74576040517f08c379a00000000000000000000000000000000000000000000000000000000081526004018080602001828103825260298152602001807f526567756c61746f7220726567697374727920616464726573732063616e6e6f81526020017f74206265207a65726f000000000000000000000000000000000000000000000081525060400191505060405180910390fd5b6003546000809054906101000a900473ffffffffffffffffffffffffffffffffffffffff1673ffffffffffffffffffffffffffffffffffffffff1663dd62ed3e33306040518363ffffffff167c0100000000000000000000000000000000000000000000000000000000028152600401808373ffffffffffffffffffffffffffffffffffffffff1673ffffffffffffffffffffffffffffffffffffffff1681526020018273ffffffffffffffffffffffffffffffffffffffff1673ffffffffffffffffffffffffffffffffffffffff16815260200192505050602060405180830381600087803b15801562000f6857600080fd5b505af115801562000f7d573d6000803e3d6000fd5b505050506040513d602081101562000f9457600080fd5b8101908080519060200190929190505050101515156200101c576040517f08c379a00000000000000000000000000000000000000000000000000000000081526004018080602001828103825260158152602001807f496e737566666963656e7420616c6c6f77616e6365000000000000000000000081525060200191505060405180910390fd5b6000809054906101000a900473ffffffffffffffffffffffffffffffffffffffff1673ffffffffffffffffffffffffffffffffffffffff166323b872dd33600460009054906101000a900473ffffffffffffffffffffffffffffffffffffffff166003546040518463ffffffff167c0100000000000000000000000000000000000000000000000000000000028152600401808473ffffffffffffffffffffffffffffffffffffffff1673ffffffffffffffffffffffffffffffffffffffff1681526020018373ffffffffffffffffffffffffffffffffffffffff1673ffffffffffffffffffffffffffffffffffffffff1681526020018281526020019350505050602060405180830381600087803b1580156200113957600080fd5b505af11580156200114e573d6000803e3d6000fd5b505050506040513d60208110156200116557600080fd5b81019080805190602001909291905050501515620011eb576040517f08c379a00000000000000000000000000000000000000000000000000000000081526004018080602001828103825260098152602001807f45564d204572726f72000000000000000000000000000000000000000000000081525060200191505060405180910390fd5b8888604051602001808383808284378201915050925050506040516020818303038152906040526040518082805190602001908083835b60208310151562001249578051825260208201915060208101905060208303925062001222565b6001836020036101000a0380198251168184511680821785525050505050509050019150506040518091039020600190049350600073ffffffffffffffffffffffffffffffffffffffff166007600086815260200190815260200160002060009054906101000a900473ffffffffffffffffffffffffffffffffffffffff1673ffffffffffffffffffffffffffffffffffffffff1614151562001354576040517f08c379a00000000000000000000000000000000000000000000000000000000081526004018080602001828103825260178152602001807f5469636b657220697320616c72656164792074616b656e00000000000000000081525060200191505060405180910390fd5b8492508287878b8b6200136662001ede565b808673ffffffffffffffffffffffffffffffffffffffff1673ffffffffffffffffffffffffffffffffffffffff16815260200180602001806020018381038352878782818152602001925080828437820191505083810382528585828181526020019250808284378201915050975050505050505050604051809103906000f080158015620013f9573d6000803e3d6000fd5b50915060a060405190810160405280428152602001600354815260200188888080601f01602080910402602001604051908101604052809392919081815260200183838082843782019150505050505081526020018a8a8080601f01602080910402602001604051908101604052809392919081815260200183838082843782019150505050505081526020018373ffffffffffffffffffffffffffffffffffffffff168152509050600560003373ffffffffffffffffffffffffffffffffffffffff1673ffffffffffffffffffffffffffffffffffffffff1681526020019081526020016000208290806001815401808255809150509060018203906000526020600020016000909192909190916101000a81548173ffffffffffffffffffffffffffffffffffffffff021916908373ffffffffffffffffffffffffffffffffffffffff1602179055505080600660003373ffffffffffffffffffffffffffffffffffffffff1673ffffffffffffffffffffffffffffffffffffffff16815260200190815260200160002060008473ffffffffffffffffffffffffffffffffffffffff1673ffffffffffffffffffffffffffffffffffffffff16815260200190815260200160002060008201518160000155602082015181600101556040820151816002019080519060200190620015f492919062001eef565b5060608201518160030190805190602001906200161392919062001eef565b5060808201518160040160006101000a81548173ffffffffffffffffffffffffffffffffffffffff021916908373ffffffffffffffffffffffffffffffffffffffff16021790555090505060013390806001815401808255809150509060018203906000526020600020016000909192909190916101000a81548173ffffffffffffffffffffffffffffffffffffffff021916908373ffffffffffffffffffffffffffffffffffffffff1602179055505060028290806001815401808255809150509060018203906000526020600020016000909192909190916101000a81548173ffffffffffffffffffffffffffffffffffffffff021916908373ffffffffffffffffffffffffffffffffffffffff16021790555050336007600086815260200190815260200160002060006101000a81548173ffffffffffffffffffffffffffffffffffffffff021916908373ffffffffffffffffffffffffffffffffffffffff1602179055508173ffffffffffffffffffffffffffffffffffffffff1663f2fde38b336040518263ffffffff167c0100000000000000000000000000000000000000000000000000000000028152600401808273ffffffffffffffffffffffffffffffffffffffff1673ffffffffffffffffffffffffffffffffffffffff168152602001915050600060405180830381600087803b1580156200181857600080fd5b505af11580156200182d573d6000803e3d6000fd5b505050503373ffffffffffffffffffffffffffffffffffffffff167f384aeb5d31c8f6d41c0dbd9ebb8af0b755491db3efaa6606bcb051ef5841440f8a8a8a8a6040518080602001806020018381038352878782818152602001925080828437820191505083810382528585828181526020019250808284378201915050965050505050505060405180910390a2505050505050505050565b60076020528060005260406000206000915054906101000a900473ffffffffffffffffffffffffffffffffffffffff1681565b600060608060008060006200190d62001e98565b6000600660008b73ffffffffffffffffffffffffffffffffffffffff1673ffffffffffffffffffffffffffffffffffffffff16815260200190815260200160002060008a73ffffffffffffffffffffffffffffffffffffffff1673ffffffffffffffffffffffffffffffffffffffff16815260200190815260200160002060a060405190810160405290816000820154815260200160018201548152602001600282018054600181600116156101000203166002900480601f01602080910402602001604051908101604052809291908181526020018280546001816001161561010002031660029004801562001a485780601f1062001a1c5761010080835404028352916020019162001a48565b820191906000526020600020905b81548152906001019060200180831162001a2a57829003601f168201915b50505050508152602001600382018054600181600116156101000203166002900480601f01602080910402602001604051908101604052809291908181526020018280546001816001161561010002031660029004801562001aee5780601f1062001ac25761010080835404028352916020019162001aee565b820191906000526020600020905b81548152906001019060200180831162001ad057829003601f168201915b505050505081526020016004820160009054906101000a900473ffffffffffffffffffffffffffffffffffffffff1673ffffffffffffffffffffffffffffffffffffffff1673ffffffffffffffffffffffffffffffffffffffff168152505091508890508160200151826040015183606001518373ffffffffffffffffffffffffffffffffffffffff1663313ce5676040518163ffffffff167c0100000000000000000000000000000000000000000000000000000000028152600401602060405180830381600087803b15801562001bc657600080fd5b505af115801562001bdb573d6000803e3d6000fd5b505050506040513d602081101562001bf257600080fd5b81019080805190602001909291905050508473ffffffffffffffffffffffffffffffffffffffff166318160ddd6040518163ffffffff167c0100000000000000000000000000000000000000000000000000000000028152600401602060405180830381600087803b15801562001c6857600080fd5b505af115801562001c7d573d6000803e3d6000fd5b505050506040513d602081101562001c9457600080fd5b8101908080519060200190929190505050866000015184945083935097509750975097509750975050509295509295509295565b600860009054906101000a900473ffffffffffffffffffffffffffffffffffffffff1673ffffffffffffffffffffffffffffffffffffffff163373ffffffffffffffffffffffffffffffffffffffff1614151562001d8e576040517f08c379a000000000000000000000000000000000000000000000000000000000815260040180806020018281038252601c8152602001807f53656e646572206973206e6f7420636f6e7472616374206f776e65720000000081525060200191505060405180910390fd5b600073ffffffffffffffffffffffffffffffffffffffff168173ffffffffffffffffffffffffffffffffffffffff161415151562001dcb57600080fd5b8073ffffffffffffffffffffffffffffffffffffffff16600860009054906101000a900473ffffffffffffffffffffffffffffffffffffffff1673ffffffffffffffffffffffffffffffffffffffff167f8be0079c531659141344cd1fd0a4f28419497f9722a3daafe3b4186f6b6457e060405160405180910390a380600860006101000a81548173ffffffffffffffffffffffffffffffffffffffff021916908373ffffffffffffffffffffffffffffffffffffffff16021790555050565b6000600180549050905090565b60a06040519081016040528060008152602001600081526020016060815260200160608152602001600073ffffffffffffffffffffffffffffffffffffffff1681525090565b6040516127958062001f9f83390190565b828054600181600116156101000203166002900490600052602060002090601f016020900481019282601f1062001f3257805160ff191683800117855562001f63565b8280016001018555821562001f63579182015b8281111562001f6257825182559160200191906001019062001f45565b5b50905062001f72919062001f76565b5090565b62001f9b91905b8082111562001f9757600081600090555060010162001f7d565b5090565b90560060806040523480156200001157600080fd5b50604051620027953803806200279583398101806040528101908080519060200190929190805182019291906020018051820192919050505081816012336000806101000a81548173ffffffffffffffffffffffffffffffffffffffff021916908373ffffffffffffffffffffffffffffffffffffffff1602179055508260049080519060200190620000a6929190620004e5565b508160059080519060200190620000bf929190620004e5565b5080600660006101000a81548160ff021916908360ff160217905550505050620000f833620001e8640100000000026401000000009004565b600073ffffffffffffffffffffffffffffffffffffffff168373ffffffffffffffffffffffffffffffffffffffff16141515156200019e576040517f08c379a00000000000000000000000000000000000000000000000000000000081526004018080602001828103825260148152602001807f616464726573732063616e6e6f7420626520307800000000000000000000000081525060200191505060405180910390fd5b82600860006101000a81548173ffffffffffffffffffffffffffffffffffffffff021916908373ffffffffffffffffffffffffffffffffffffffff16021790555050505062000594565b6200020c816007620002526401000000000262001ec2179091906401000000009004565b8073ffffffffffffffffffffffffffffffffffffffff167f6ae172837ea30b801fbfcdd4108aa1d5bf8ff775444fd70256b44e6bf3dfc3f660405160405180910390a250565b600073ffffffffffffffffffffffffffffffffffffffff168173ffffffffffffffffffffffffffffffffffffffff1614151515620002f8576040517f08c379a00000000000000000000000000000000000000000000000000000000081526004018080602001828103825260148152602001807f616464726573732063616e6e6f7420626520307800000000000000000000000081525060200191505060405180910390fd5b620003138282620003e7640100000000026401000000009004565b15151562000389576040517f08c379a00000000000000000000000000000000000000000000000000000000081526004018080602001828103825260178152602001807f6163636f756e7420616c726561647920696e20726f6c6500000000000000000081525060200191505060405180910390fd5b60018260000160008373ffffffffffffffffffffffffffffffffffffffff1673ffffffffffffffffffffffffffffffffffffffff16815260200190815260200160002060006101000a81548160ff0219169083151502179055505050565b60008073ffffffffffffffffffffffffffffffffffffffff168273ffffffffffffffffffffffffffffffffffffffff16141515156200048e576040517f08c379a00000000000000000000000000000000000000000000000000000000081526004018080602001828103825260148152602001807f616464726573732063616e6e6f7420626520307800000000000000000000000081525060200191505060405180910390fd5b8260000160008373ffffffffffffffffffffffffffffffffffffffff1673ffffffffffffffffffffffffffffffffffffffff16815260200190815260200160002060009054906101000a900460ff16905092915050565b828054600181600116156101000203166002900490600052602060002090601f016020900481019282601f106200052857805160ff191683800117855562000559565b8280016001018555821562000559579182015b82811115620005585782518255916020019190600101906200053b565b5b5090506200056891906200056c565b5090565b6200059191905b808211156200058d57600081600090555060010162000573565b5090565b90565b6121f180620005a46000396000f300608060405260043610610133576000357c0100000000000000000000000000000000000000000000000000000000900463ffffffff16806306fdde0314610138578063095ea7b3146101c857806318160ddd1461022d57806323b872dd14610258578063313ce567146102dd578063395093511461030e5780633eaaf86b1461037357806340c10f191461039e57806342966c68146104035780636ebcf6071461044857806370a082311461049f5780637af78fab146104f65780637b103999146105275780638da5cb5b1461057e57806395d89b41146105d5578063983b2d561461066557806398650275146106a8578063a457c2d7146106bf578063a9059cbb14610724578063aa271e1a14610789578063cdb80c51146107e4578063dd62ed3e1461083b578063f2fde38b146108b2575b600080fd5b34801561014457600080fd5b5061014d6108f5565b6040518080602001828103825283818151815260200191508051906020019080838360005b8381101561018d578082015181840152602081019050610172565b50505050905090810190601f1680156101ba5780820380516001836020036101000a031916815260200191505b509250505060405180910390f35b3480156101d457600080fd5b50610213600480360381019080803573ffffffffffffffffffffffffffffffffffffffff16906020019092919080359060200190929190505050610997565b604051808215151515815260200191505060405180910390f35b34801561023957600080fd5b506102426109ae565b6040518082815260200191505060405180910390f35b34801561026457600080fd5b506102c3600480360381019080803573ffffffffffffffffffffffffffffffffffffffff169060200190929190803573ffffffffffffffffffffffffffffffffffffffff169060200190929190803590602001909291905050506109b8565b604051808215151515815260200191505060405180910390f35b3480156102e957600080fd5b506102f2610a4d565b604051808260ff1660ff16815260200191505060405180910390f35b34801561031a57600080fd5b50610359600480360381019080803573ffffffffffffffffffffffffffffffffffffffff16906020019092919080359060200190929190505050610a64565b604051808215151515815260200191505060405180910390f35b34801561037f57600080fd5b50610388610b09565b6040518082815260200191505060405180910390f35b3480156103aa57600080fd5b506103e9600480360381019080803573ffffffffffffffffffffffffffffffffffffffff16906020019092919080359060200190929190505050610b0f565b604051808215151515815260200191505060405180910390f35b34801561040f57600080fd5b5061042e60048036038101908080359060200190929190505050610e0b565b604051808215151515815260200191505060405180910390f35b34801561045457600080fd5b50610489600480360381019080803573ffffffffffffffffffffffffffffffffffffffff169060200190929190505050610e34565b6040518082815260200191505060405180910390f35b3480156104ab57600080fd5b506104e0600480360381019080803573ffffffffffffffffffffffffffffffffffffffff169060200190929190505050610e4c565b6040518082815260200191505060405180910390f35b34801561050257600080fd5b5061050b610e95565b604051808260ff1660ff16815260200191505060405180910390f35b34801561053357600080fd5b5061053c610e9a565b604051808273ffffffffffffffffffffffffffffffffffffffff1673ffffffffffffffffffffffffffffffffffffffff16815260200191505060405180910390f35b34801561058a57600080fd5b50610593610ec0565b604051808273ffffffffffffffffffffffffffffffffffffffff1673ffffffffffffffffffffffffffffffffffffffff16815260200191505060405180910390f35b3480156105e157600080fd5b506105ea610ee5565b6040518080602001828103825283818151815260200191508051906020019080838360005b8381101561062a57808201518184015260208101905061060f565b50505050905090810190601f1680156106575780820380516001836020036101000a031916815260200191505b509250505060405180910390f35b34801561067157600080fd5b506106a6600480360381019080803573ffffffffffffffffffffffffffffffffffffffff169060200190929190505050610f87565b005b3480156106b457600080fd5b506106bd610fa7565b005b3480156106cb57600080fd5b5061070a600480360381019080803573ffffffffffffffffffffffffffffffffffffffff16906020019092919080359060200190929190505050610fb2565b604051808215151515815260200191505060405180910390f35b34801561073057600080fd5b5061076f600480360381019080803573ffffffffffffffffffffffffffffffffffffffff16906020019092919080359060200190929190505050611057565b604051808215151515815260200191505060405180910390f35b34801561079557600080fd5b506107ca600480360381019080803573ffffffffffffffffffffffffffffffffffffffff1690602001909291905050506110ea565b604051808215151515815260200191505060405180910390f35b3480156107f057600080fd5b506107f9611107565b604051808273ffffffffffffffffffffffffffffffffffffffff1673ffffffffffffffffffffffffffffffffffffffff16815260200191505060405180910390f35b34801561084757600080fd5b5061089c600480360381019080803573ffffffffffffffffffffffffffffffffffffffff169060200190929190803573ffffffffffffffffffffffffffffffffffffffff1690602001909291905050506111cf565b6040518082815260200191505060405180910390f35b3480156108be57600080fd5b506108f3600480360381019080803573ffffffffffffffffffffffffffffffffffffffff169060200190929190505050611256565b005b606060048054600181600116156101000203166002900480601f01602080910402602001604051908101604052809291908181526020018280546001816001161561010002031660029004801561098d5780601f106109625761010080835404028352916020019161098d565b820191906000526020600020905b81548152906001019060200180831161097057829003601f168201915b5050505050905090565b60006109a4338484611414565b6001905092915050565b6000600354905090565b60006109c5848484611577565b1515610a39576040517f08c379a00000000000000000000000000000000000000000000000000000000081526004018080602001828103825260138152602001807f43616e6e6f74207472616e7366657246726f6d0000000000000000000000000081525060200191505060405180910390fd5b610a44848484611798565b90509392505050565b6000600660009054906101000a900460ff16905090565b6000610aff3384610afa85600260003373ffffffffffffffffffffffffffffffffffffffff1673ffffffffffffffffffffffffffffffffffffffff16815260200190815260200160002060008973ffffffffffffffffffffffffffffffffffffffff1673ffffffffffffffffffffffffffffffffffffffff1681526020019081526020016000205461184990919063ffffffff16565b611414565b6001905092915050565b60035481565b60008060009054906101000a900473ffffffffffffffffffffffffffffffffffffffff1673ffffffffffffffffffffffffffffffffffffffff163373ffffffffffffffffffffffffffffffffffffffff16141515610bd5576040517f08c379a000000000000000000000000000000000000000000000000000000000815260040180806020018281038252601c8152602001807f53656e646572206973206e6f7420636f6e7472616374206f776e65720000000081525060200191505060405180910390fd5b3373ffffffffffffffffffffffffffffffffffffffff168373ffffffffffffffffffffffffffffffffffffffff16141515610c9e576040517f08c379a000000000000000000000000000000000000000000000000000000000815260040180806020018281038252602e8152602001807f4d696e74696e67206973206f6e6c7920616c6c6f77656420696e20746865206f81526020017f776e65722773206163636f756e7400000000000000000000000000000000000081525060400191505060405180910390fd5b610ca6611107565b73ffffffffffffffffffffffffffffffffffffffff1663e2898bd530846040518363ffffffff167c0100000000000000000000000000000000000000000000000000000000028152600401808373ffffffffffffffffffffffffffffffffffffffff1673ffffffffffffffffffffffffffffffffffffffff16815260200182815260200192505050602060405180830381600087803b158015610d4857600080fd5b505af1158015610d5c573d6000803e3d6000fd5b505050506040513d6020811015610d7257600080fd5b81019080805190602001909291905050501515610df7576040517f08c379a00000000000000000000000000000000000000000000000000000000081526004018080602001828103825260178152602001807f43616e6e6f74206d696e74207468617420616d6f756e7400000000000000000081525060200191505060405180910390fd5b610e013383611865565b6001905092915050565b6000610e16336110ea565b1515610e2157600080fd5b610e2b33836119bb565b60019050919050565b60016020528060005260406000206000915090505481565b6000600160008373ffffffffffffffffffffffffffffffffffffffff1673ffffffffffffffffffffffffffffffffffffffff168152602001908152602001600020549050919050565b601281565b600860009054906101000a900473ffffffffffffffffffffffffffffffffffffffff1681565b6000809054906101000a900473ffffffffffffffffffffffffffffffffffffffff1681565b606060058054600181600116156101000203166002900480601f016020809104026020016040519081016040528092919081815260200182805460018160011615610100020316600290048015610f7d5780601f10610f5257610100808354040283529160200191610f7d565b820191906000526020600020905b815481529060010190602001808311610f6057829003601f168201915b5050505050905090565b610f90336110ea565b1515610f9b57600080fd5b610fa481611b11565b50565b610fb033611b6b565b565b600061104d338461104885600260003373ffffffffffffffffffffffffffffffffffffffff1673ffffffffffffffffffffffffffffffffffffffff16815260200190815260200160002060008973ffffffffffffffffffffffffffffffffffffffff1673ffffffffffffffffffffffffffffffffffffffff16815260200190815260200160002054611bc590919063ffffffff16565b611414565b6001905092915050565b6000611064338484611577565b15156110d8576040517f08c379a000000000000000000000000000000000000000000000000000000000815260040180806020018281038252600f8152602001807f43616e6e6f74207472616e73666572000000000000000000000000000000000081525060200191505060405180910390fd5b6110e28383611bde565b905092915050565b6000611100826007611bf590919063ffffffff16565b9050919050565b6000600860009054906101000a900473ffffffffffffffffffffffffffffffffffffffff1673ffffffffffffffffffffffffffffffffffffffff1663d598d4c96040518163ffffffff167c0100000000000000000000000000000000000000000000000000000000028152600401602060405180830381600087803b15801561118f57600080fd5b505af11580156111a3573d6000803e3d6000fd5b505050506040513d60208110156111b957600080fd5b8101908080519060200190929190505050905090565b6000600260008473ffffffffffffffffffffffffffffffffffffffff1673ffffffffffffffffffffffffffffffffffffffff16815260200190815260200160002060008373ffffffffffffffffffffffffffffffffffffffff1673ffffffffffffffffffffffffffffffffffffffff16815260200190815260200160002054905092915050565b6000809054906101000a900473ffffffffffffffffffffffffffffffffffffffff1673ffffffffffffffffffffffffffffffffffffffff163373ffffffffffffffffffffffffffffffffffffffff1614151561131a576040517f08c379a000000000000000000000000000000000000000000000000000000000815260040180806020018281038252601c8152602001807f53656e646572206973206e6f7420636f6e7472616374206f776e65720000000081525060200191505060405180910390fd5b600073ffffffffffffffffffffffffffffffffffffffff168173ffffffffffffffffffffffffffffffffffffffff161415151561135657600080fd5b8073ffffffffffffffffffffffffffffffffffffffff166000809054906101000a900473ffffffffffffffffffffffffffffffffffffffff1673ffffffffffffffffffffffffffffffffffffffff167f8be0079c531659141344cd1fd0a4f28419497f9722a3daafe3b4186f6b6457e060405160405180910390a3806000806101000a81548173ffffffffffffffffffffffffffffffffffffffff021916908373ffffffffffffffffffffffffffffffffffffffff16021790555050565b600073ffffffffffffffffffffffffffffffffffffffff168273ffffffffffffffffffffffffffffffffffffffff161415151561145057600080fd5b600073ffffffffffffffffffffffffffffffffffffffff168373ffffffffffffffffffffffffffffffffffffffff161415151561148c57600080fd5b80600260008573ffffffffffffffffffffffffffffffffffffffff1673ffffffffffffffffffffffffffffffffffffffff16815260200190815260200160002060008473ffffffffffffffffffffffffffffffffffffffff1673ffffffffffffffffffffffffffffffffffffffff168152602001908152602001600020819055508173ffffffffffffffffffffffffffffffffffffffff168373ffffffffffffffffffffffffffffffffffffffff167f8c5be1e5ebec7d5bd14f71427d1e84f3dd0314c0f7b2291e5b200ac8c7c3b925836040518082815260200191505060405180910390a3505050565b600080611582611107565b73ffffffffffffffffffffffffffffffffffffffff1663803fcd4330338888886040518663ffffffff167c0100000000000000000000000000000000000000000000000000000000028152600401808673ffffffffffffffffffffffffffffffffffffffff1673ffffffffffffffffffffffffffffffffffffffff1681526020018573ffffffffffffffffffffffffffffffffffffffff1673ffffffffffffffffffffffffffffffffffffffff1681526020018473ffffffffffffffffffffffffffffffffffffffff1673ffffffffffffffffffffffffffffffffffffffff1681526020018373ffffffffffffffffffffffffffffffffffffffff1673ffffffffffffffffffffffffffffffffffffffff16815260200182815260200195505050505050602060405180830381600087803b1580156116c057600080fd5b505af11580156116d4573d6000803e3d6000fd5b505050506040513d60208110156116ea57600080fd5b810190808051906020019092919050505090508373ffffffffffffffffffffffffffffffffffffffff168573ffffffffffffffffffffffffffffffffffffffff163373ffffffffffffffffffffffffffffffffffffffff167ffd20773570a2b431bed386715215a2b0c0d03e034387a3562fb9f68d29649c838487604051808360ff1660ff1681526020018281526020019250505060405180910390a460008160ff16149150509392505050565b60006117a5848484611cf2565b61183e843361183985600260008a73ffffffffffffffffffffffffffffffffffffffff1673ffffffffffffffffffffffffffffffffffffffff16815260200190815260200160002060003373ffffffffffffffffffffffffffffffffffffffff1673ffffffffffffffffffffffffffffffffffffffff16815260200190815260200160002054611bc590919063ffffffff16565b611414565b600190509392505050565b6000818301905082811015151561185c57fe5b80905092915050565b600073ffffffffffffffffffffffffffffffffffffffff168273ffffffffffffffffffffffffffffffffffffffff16141515156118a157600080fd5b6118b68160035461184990919063ffffffff16565b60038190555061190e81600160008573ffffffffffffffffffffffffffffffffffffffff1673ffffffffffffffffffffffffffffffffffffffff1681526020019081526020016000205461184990919063ffffffff16565b600160008473ffffffffffffffffffffffffffffffffffffffff1673ffffffffffffffffffffffffffffffffffffffff168152602001908152602001600020819055508173ffffffffffffffffffffffffffffffffffffffff16600073ffffffffffffffffffffffffffffffffffffffff167fddf252ad1be2c89b69c2b068fc378daa952ba7f163c4a11628f55a4df523b3ef836040518082815260200191505060405180910390a35050565b600073ffffffffffffffffffffffffffffffffffffffff168273ffffffffffffffffffffffffffffffffffffffff16141515156119f757600080fd5b611a0c81600354611bc590919063ffffffff16565b600381905550611a6481600160008573ffffffffffffffffffffffffffffffffffffffff1673ffffffffffffffffffffffffffffffffffffffff16815260200190815260200160002054611bc590919063ffffffff16565b600160008473ffffffffffffffffffffffffffffffffffffffff1673ffffffffffffffffffffffffffffffffffffffff16815260200190815260200160002081905550600073ffffffffffffffffffffffffffffffffffffffff168273ffffffffffffffffffffffffffffffffffffffff167fddf252ad1be2c89b69c2b068fc378daa952ba7f163c4a11628f55a4df523b3ef836040518082815260200191505060405180910390a35050565b611b25816007611ec290919063ffffffff16565b8073ffffffffffffffffffffffffffffffffffffffff167f6ae172837ea30b801fbfcdd4108aa1d5bf8ff775444fd70256b44e6bf3dfc3f660405160405180910390a250565b611b7f81600761204490919063ffffffff16565b8073ffffffffffffffffffffffffffffffffffffffff167fe94479a9f7e1952cc78f2d6baab678adc1b772d936c6583def489e524cb6669260405160405180910390a250565b6000828211151515611bd357fe5b818303905092915050565b6000611beb338484611cf2565b6001905092915050565b60008073ffffffffffffffffffffffffffffffffffffffff168273ffffffffffffffffffffffffffffffffffffffff1614151515611c9b576040517f08c379a00000000000000000000000000000000000000000000000000000000081526004018080602001828103825260148152602001807f616464726573732063616e6e6f7420626520307800000000000000000000000081525060200191505060405180910390fd5b8260000160008373ffffffffffffffffffffffffffffffffffffffff1673ffffffffffffffffffffffffffffffffffffffff16815260200190815260200160002060009054906101000a900460ff16905092915050565b600073ffffffffffffffffffffffffffffffffffffffff168273ffffffffffffffffffffffffffffffffffffffff1614151515611d2e57600080fd5b611d8081600160008673ffffffffffffffffffffffffffffffffffffffff1673ffffffffffffffffffffffffffffffffffffffff16815260200190815260200160002054611bc590919063ffffffff16565b600160008573ffffffffffffffffffffffffffffffffffffffff1673ffffffffffffffffffffffffffffffffffffffff16815260200190815260200160002081905550611e1581600160008573ffffffffffffffffffffffffffffffffffffffff1673ffffffffffffffffffffffffffffffffffffffff1681526020019081526020016000205461184990919063ffffffff16565b600160008473ffffffffffffffffffffffffffffffffffffffff1673ffffffffffffffffffffffffffffffffffffffff168152602001908152602001600020819055508173ffffffffffffffffffffffffffffffffffffffff168373ffffffffffffffffffffffffffffffffffffffff167fddf252ad1be2c89b69c2b068fc378daa952ba7f163c4a11628f55a4df523b3ef836040518082815260200191505060405180910390a3505050565b600073ffffffffffffffffffffffffffffffffffffffff168173ffffffffffffffffffffffffffffffffffffffff1614151515611f67576040517f08c379a00000000000000000000000000000000000000000000000000000000081526004018080602001828103825260148152602001807f616464726573732063616e6e6f7420626520307800000000000000000000000081525060200191505060405180910390fd5b611f718282611bf5565b151515611fe6576040517f08c379a00000000000000000000000000000000000000000000000000000000081526004018080602001828103825260178152602001807f6163636f756e7420616c726561647920696e20726f6c6500000000000000000081525060200191505060405180910390fd5b60018260000160008373ffffffffffffffffffffffffffffffffffffffff1673ffffffffffffffffffffffffffffffffffffffff16815260200190815260200160002060006101000a81548160ff0219169083151502179055505050565b600073ffffffffffffffffffffffffffffffffffffffff168173ffffffffffffffffffffffffffffffffffffffff16141515156120e9576040517f08c379a00000000000000000000000000000000000000000000000000000000081526004018080602001828103825260148152602001807f616464726573732063616e6e6f7420626520307800000000000000000000000081525060200191505060405180910390fd5b6120f38282611bf5565b1515612167576040517f08c379a00000000000000000000000000000000000000000000000000000000081526004018080602001828103825260138152602001807f6163636f756e74206e6f7420696e20726f6c650000000000000000000000000081525060200191505060405180910390fd5b60008260000160008373ffffffffffffffffffffffffffffffffffffffff1673ffffffffffffffffffffffffffffffffffffffff16815260200190815260200160002060006101000a81548160ff02191690831515021790555050505600a165627a7a72305820567b9fdea4770874d9d79b50903c33579d4dc149af0b08fe93f7d7752c6fffdd0029a165627a7a72305820f2bcf4d1d67a29f4b105cb687ddc939fea49667449d32c910e333410919e79f10029",
  "source": "pragma solidity ^0.4.25;\r\n\r\nimport \"../utils/Ownable.sol\";\r\nimport \"./RegulatorFactoryInterface.sol\";\r\nimport \"../ERC20/ERC20.sol\";\r\nimport \"../ERC20/R_ERC20Detailed.sol\";\r\nimport \"../rToken/MetamorphRegulatedToken.sol\";\r\nimport \"../rToken/MetamorphRegulatorRegistry.sol\";\r\n\r\n/**\r\n* @title TokenReserve interface\r\n*/\r\ncontract MetamorphRegulatedTokenFactory is RegulatorFactoryInterface, Ownable {\r\n\r\n    /**\r\n    * @dev Throws if called by any account other than the owner.\r\n    * @param  _token The address of the Metamoprh token\r\n    * @param  _price The price of the Regulated token\r\n    * @param  _fundsHolder The address of contract holding the funds\r\n    */\r\n    constructor(address _token, uint256 _price, address _fundsHolder) public {\r\n        require(_token != address(0), \"Token address cannot be 0\");\r\n        require(_price > 0, \"price should be more than 0\");\r\n        require(_fundsHolder != address(0), \"FundsHolder address cannot be zero\");\r\n        metmToken = _token;\r\n        price = _price;\r\n        fundsHolder = FundsHolder(_fundsHolder);\r\n    }\r\n\r\n    function setFundsHolderAddress(address _fundsHolder) external onlyOwner {\r\n        require(_fundsHolder!=address(0), \"address cannot be 0x\");\r\n        fundsHolder = FundsHolder(_fundsHolder);\r\n    }\r\n\r\n\r\n    function setPrice(uint256 _price) external onlyOwner {\r\n        require(_price > 0, \"Price cannot be 0\");\r\n        price = _price;\r\n    }\r\n\r\n    function createToken(string _symbol, string _name, address _regulatorRegistry) external {\r\n        require(bytes(_symbol).length >= 2 && bytes(_symbol).length <= 4, \"Symbol length should be more than 2\");\r\n        require(bytes(_name).length >= 2, \"Name length should be more than 2\");\r\n        require(_regulatorRegistry != address(0), \"Regulator registry address cannot be zero\");\r\n        require(IERC20(metmToken).allowance(msg.sender, address(this)) >= price, \"Insufficent allowance\");\r\n        require(IERC20(metmToken).transferFrom(msg.sender, address(fundsHolder), price), \"EVM Error\");\r\n        uint256 ticker = uint256(keccak256(abi.encodePacked(_symbol)));\r\n        require(tickers[ticker] == address(0), \"Ticker is already taken\");\r\n        MetamorphRegulatorRegistry registryContract = MetamorphRegulatorRegistry(_regulatorRegistry);\r\n        MetamorphRegulatedToken rToken = new MetamorphRegulatedToken(registryContract, _name, _symbol);\r\n        TokenSettings memory settings = TokenSettings({\r\n            ts: now,\r\n            price: price,\r\n            name: _name,\r\n            symbol: _symbol,\r\n            tokenAddress: address(rToken)\r\n        });\r\n        issuerTokens[msg.sender].push(address(rToken));\r\n        issuerTokensData[msg.sender][address(rToken)] = settings;\r\n        issuers.push(msg.sender);\r\n        tokens.push(address(rToken));\r\n        tickers[ticker] = msg.sender;\r\n        rToken.transferOwnership(msg.sender);\r\n        emit Issued(msg.sender, _symbol, _name);\r\n    }\r\n\r\n    function getAlltokens(address _issuer) public view returns (address[]) {\r\n        return issuerTokens[_issuer];\r\n    }\r\n\r\n    function getInfo(address _issuer, address _token) public view returns (uint256, string, string, uint8, uint256, uint256) {\r\n        TokenSettings memory settings = issuerTokensData[_issuer][_token];\r\n        R_ERC20Detailed rToken = R_ERC20Detailed(_token);\r\n        return(\r\n            settings.price,\r\n            settings.name,\r\n            settings.symbol,\r\n            rToken.decimals(),\r\n            rToken.totalSupply(),\r\n            settings.ts\r\n        );\r\n    }\r\n\r\n    function getNumOfTokens() public view returns (uint256) {\r\n        return tokens.length;\r\n    }\r\n\r\n    function getNumOfIssuers() public view returns (uint256) {\r\n        return issuers.length;\r\n    }\r\n\r\n    function getFundsHolderAddress() public view returns (address) {\r\n        return address(fundsHolder);\r\n    }\r\n\r\n    function getIssuer(string _symbol) public view returns (address issuer) {\r\n        uint256 ticker = uint256(keccak256(abi.encodePacked(_symbol)));\r\n        issuer = tickers[ticker];\r\n    }\r\n}",
  "sourcePath": "E:\\Ethereum\\METM\\MetamorphTokenCreation\\src\\app\\ethereum\\contracts\\token_factory\\MetamorphRegulatedTokenFactory.sol",
  "compiler": {
    "name": "solc",
    "version": "0.4.25+commit.59dbf8f1.Emscripten.clang"
  },
  "schemaVersion": "2.0.2",
  "updatedAt": "2019-07-17T04:05:16.045Z"
}