{
  "contractName": "MetamorphRegulatorRegistry",
  "abi": [
    {
      "constant": true,
      "inputs": [],
      "name": "owner",
      "outputs": [
        {
          "name": "",
          "type": "address"
        }
      ],
      "payable": false,
      "stateMutability": "view",
      "type": "function"
    },
    {
      "constant": true,
      "inputs": [],
      "name": "service",
      "outputs": [
        {
          "name": "",
          "type": "address"
        }
      ],
      "payable": false,
      "stateMutability": "view",
      "type": "function"
    },
    {
      "constant": false,
      "inputs": [
        {
          "name": "newOwner",
          "type": "address"
        }
      ],
      "name": "transferOwnership",
      "outputs": [],
      "payable": false,
      "stateMutability": "nonpayable",
      "type": "function"
    },
    {
      "inputs": [
        {
          "name": "_service",
          "type": "address"
        }
      ],
      "payable": false,
      "stateMutability": "nonpayable",
      "type": "constructor"
    },
    {
      "anonymous": false,
      "inputs": [
        {
          "indexed": false,
          "name": "oldService",
          "type": "address"
        },
        {
          "indexed": false,
          "name": "newService",
          "type": "address"
        }
      ],
      "name": "ReplaceService",
      "type": "event"
    },
    {
      "anonymous": false,
      "inputs": [
        {
          "indexed": true,
          "name": "previousOwner",
          "type": "address"
        },
        {
          "indexed": true,
          "name": "newOwner",
          "type": "address"
        }
      ],
      "name": "OwnershipTransferred",
      "type": "event"
    },
    {
      "constant": false,
      "inputs": [
        {
          "name": "_service",
          "type": "address"
        }
      ],
      "name": "replaceService",
      "outputs": [],
      "payable": false,
      "stateMutability": "nonpayable",
      "type": "function"
    }
  ],
  "bytecode": "0x608060405234801561001057600080fd5b506040516020806106fe83398101806040528101908080519060200190929190505050336000806101000a81548173ffffffffffffffffffffffffffffffffffffffff021916908373ffffffffffffffffffffffffffffffffffffffff16021790555080600160006101000a81548173ffffffffffffffffffffffffffffffffffffffff021916908373ffffffffffffffffffffffffffffffffffffffff1602179055505061063a806100c46000396000f300608060405260043610610062576000357c0100000000000000000000000000000000000000000000000000000000900463ffffffff1680630680d58a146100675780638da5cb5b146100aa578063d598d4c914610101578063f2fde38b14610158575b600080fd5b34801561007357600080fd5b506100a8600480360381019080803573ffffffffffffffffffffffffffffffffffffffff16906020019092919050505061019b565b005b3480156100b657600080fd5b506100bf610405565b604051808273ffffffffffffffffffffffffffffffffffffffff1673ffffffffffffffffffffffffffffffffffffffff16815260200191505060405180910390f35b34801561010d57600080fd5b5061011661042a565b604051808273ffffffffffffffffffffffffffffffffffffffff1673ffffffffffffffffffffffffffffffffffffffff16815260200191505060405180910390f35b34801561016457600080fd5b50610199600480360381019080803573ffffffffffffffffffffffffffffffffffffffff169060200190929190505050610450565b005b60008060009054906101000a900473ffffffffffffffffffffffffffffffffffffffff1673ffffffffffffffffffffffffffffffffffffffff163373ffffffffffffffffffffffffffffffffffffffff16141515610261576040517f08c379a000000000000000000000000000000000000000000000000000000000815260040180806020018281038252601c8152602001807f53656e646572206973206e6f7420636f6e7472616374206f776e65720000000081525060200191505060405180910390fd5b816000813b90506000811115156102e0576040517f08c379a00000000000000000000000000000000000000000000000000000000081526004018080602001828103825260168152602001807f6e6f74206120636f6e747261637420616464726573730000000000000000000081525060200191505060405180910390fd5b600160009054906101000a900473ffffffffffffffffffffffffffffffffffffffff16925083600160006101000a81548173ffffffffffffffffffffffffffffffffffffffff021916908373ffffffffffffffffffffffffffffffffffffffff1602179055507fb9e3587fba8495ea4ca8cd7a6a3c79a137417d0033018bf09e7b0b5b38dce97483600160009054906101000a900473ffffffffffffffffffffffffffffffffffffffff16604051808373ffffffffffffffffffffffffffffffffffffffff1673ffffffffffffffffffffffffffffffffffffffff1681526020018273ffffffffffffffffffffffffffffffffffffffff1673ffffffffffffffffffffffffffffffffffffffff1681526020019250505060405180910390a150505050565b6000809054906101000a900473ffffffffffffffffffffffffffffffffffffffff1681565b600160009054906101000a900473ffffffffffffffffffffffffffffffffffffffff1681565b6000809054906101000a900473ffffffffffffffffffffffffffffffffffffffff1673ffffffffffffffffffffffffffffffffffffffff163373ffffffffffffffffffffffffffffffffffffffff16141515610514576040517f08c379a000000000000000000000000000000000000000000000000000000000815260040180806020018281038252601c8152602001807f53656e646572206973206e6f7420636f6e7472616374206f776e65720000000081525060200191505060405180910390fd5b600073ffffffffffffffffffffffffffffffffffffffff168173ffffffffffffffffffffffffffffffffffffffff161415151561055057600080fd5b8073ffffffffffffffffffffffffffffffffffffffff166000809054906101000a900473ffffffffffffffffffffffffffffffffffffffff1673ffffffffffffffffffffffffffffffffffffffff167f8be0079c531659141344cd1fd0a4f28419497f9722a3daafe3b4186f6b6457e060405160405180910390a3806000806101000a81548173ffffffffffffffffffffffffffffffffffffffff021916908373ffffffffffffffffffffffffffffffffffffffff160217905550505600a165627a7a723058205e86223dece2ce9d4e831c11ef7cf4c05703efc66304b922e13e53a814de6e860029",
  "source": "pragma solidity ^0.4.25;\r\n\r\nimport './MetamorphRegulatorInterface.sol';\r\nimport '../utils/Ownable.sol';\r\n\r\n/// @notice A service that points to a `MetamorphRegulatorInterface`\r\ncontract MetamorphRegulatorRegistry is Ownable {\r\n  address public service;\r\n\r\n  /**\r\n   * @notice Triggered when service address is replaced\r\n   */\r\n  event ReplaceService(address oldService, address newService);\r\n\r\n  /**\r\n   * @dev Validate contract address\r\n   * Credit: https://github.com/Dexaran/ERC223-token-standard/blob/Recommended/ERC223_Token.sol#L107-L114\r\n   *\r\n   * @param _addr The address of a smart contract\r\n   */\r\n  modifier withContract(address _addr) {\r\n    uint length;\r\n    assembly { length := extcodesize(_addr) }\r\n    require(length > 0, \"not a contract address\");\r\n    _;\r\n  }\r\n\r\n  /**\r\n   * @notice Constructor\r\n   *\r\n   * @param _service The address of the `MetamorphRegulatorInterface`\r\n   *\r\n   */\r\n  constructor(address _service) public {\r\n    service = _service;\r\n  }\r\n\r\n  /**\r\n   * @notice Replaces the address pointer to the `MetamorphRegulatorInterface`\r\n   *\r\n   * @dev This method is only callable by the contract's owner\r\n   *\r\n   * @param _service The address of the new `MetamorphRegulatorInterface`\r\n   */\r\n  function replaceService(address _service) onlyOwner withContract(_service) public {\r\n    address oldService = service;\r\n    service = _service;\r\n    emit ReplaceService(oldService, service);\r\n  }\r\n}",
  "sourcePath": "E:\\Ethereum\\METM\\MetamorphTokenCreation\\src\\app\\ethereum\\contracts\\rToken\\MetamorphRegulatorRegistry.sol",
  "compiler": {
    "name": "solc",
    "version": "0.4.25+commit.59dbf8f1.Emscripten.clang"
  },
  "schemaVersion": "2.0.2",
  "updatedAt": "2019-07-17T04:09:42.151Z"
}