{
  "contractName": "MetamorphTokenRegulator",
  "abi": [
    {
      "constant": true,
      "inputs": [
        {
          "name": "",
          "type": "address"
        }
      ],
      "name": "participants",
      "outputs": [
        {
          "name": "",
          "type": "uint8"
        }
      ],
      "payable": false,
      "stateMutability": "view",
      "type": "function"
    },
    {
      "constant": true,
      "inputs": [
        {
          "name": "",
          "type": "address"
        }
      ],
      "name": "admins",
      "outputs": [
        {
          "name": "",
          "type": "bool"
        }
      ],
      "payable": false,
      "stateMutability": "view",
      "type": "function"
    },
    {
      "constant": true,
      "inputs": [],
      "name": "owner",
      "outputs": [
        {
          "name": "",
          "type": "address"
        }
      ],
      "payable": false,
      "stateMutability": "view",
      "type": "function"
    },
    {
      "constant": true,
      "inputs": [
        {
          "name": "",
          "type": "address"
        }
      ],
      "name": "settings",
      "outputs": [
        {
          "name": "unlocked",
          "type": "bool"
        },
        {
          "name": "partialTransfers",
          "type": "bool"
        },
        {
          "name": "mintAllowance",
          "type": "uint256"
        }
      ],
      "payable": false,
      "stateMutability": "view",
      "type": "function"
    },
    {
      "constant": false,
      "inputs": [
        {
          "name": "newOwner",
          "type": "address"
        }
      ],
      "name": "transferOwnership",
      "outputs": [],
      "payable": false,
      "stateMutability": "nonpayable",
      "type": "function"
    },
    {
      "inputs": [],
      "payable": false,
      "stateMutability": "nonpayable",
      "type": "constructor"
    },
    {
      "anonymous": false,
      "inputs": [
        {
          "indexed": true,
          "name": "token",
          "type": "address"
        },
        {
          "indexed": false,
          "name": "locked",
          "type": "bool"
        }
      ],
      "name": "LogLockSet",
      "type": "event"
    },
    {
      "anonymous": false,
      "inputs": [
        {
          "indexed": true,
          "name": "participant",
          "type": "address"
        },
        {
          "indexed": false,
          "name": "permission",
          "type": "uint8"
        }
      ],
      "name": "LogPermissionSet",
      "type": "event"
    },
    {
      "anonymous": false,
      "inputs": [
        {
          "indexed": true,
          "name": "token",
          "type": "address"
        },
        {
          "indexed": false,
          "name": "enabled",
          "type": "bool"
        }
      ],
      "name": "LogPartialTransferSet",
      "type": "event"
    },
    {
      "anonymous": false,
      "inputs": [
        {
          "indexed": true,
          "name": "admin",
          "type": "address"
        },
        {
          "indexed": false,
          "name": "isAdmin",
          "type": "bool"
        }
      ],
      "name": "LogAdmin",
      "type": "event"
    },
    {
      "anonymous": false,
      "inputs": [
        {
          "indexed": true,
          "name": "token",
          "type": "address"
        },
        {
          "indexed": false,
          "name": "mintAllowance",
          "type": "uint256"
        }
      ],
      "name": "MintAllowance",
      "type": "event"
    },
    {
      "anonymous": false,
      "inputs": [
        {
          "indexed": true,
          "name": "previousOwner",
          "type": "address"
        },
        {
          "indexed": true,
          "name": "newOwner",
          "type": "address"
        }
      ],
      "name": "OwnershipTransferred",
      "type": "event"
    },
    {
      "constant": false,
      "inputs": [
        {
          "name": "_token",
          "type": "address"
        },
        {
          "name": "_unlocked",
          "type": "bool"
        }
      ],
      "name": "setUnlocked",
      "outputs": [],
      "payable": false,
      "stateMutability": "nonpayable",
      "type": "function"
    },
    {
      "constant": false,
      "inputs": [
        {
          "name": "_token",
          "type": "address"
        },
        {
          "name": "_mintAllowance",
          "type": "uint256"
        }
      ],
      "name": "setMintAllowance",
      "outputs": [],
      "payable": false,
      "stateMutability": "nonpayable",
      "type": "function"
    },
    {
      "constant": false,
      "inputs": [
        {
          "name": "_participant",
          "type": "address"
        },
        {
          "name": "_permission",
          "type": "uint8"
        }
      ],
      "name": "setPermission",
      "outputs": [],
      "payable": false,
      "stateMutability": "nonpayable",
      "type": "function"
    },
    {
      "constant": false,
      "inputs": [
        {
          "name": "_token",
          "type": "address"
        },
        {
          "name": "_enabled",
          "type": "bool"
        }
      ],
      "name": "setPartialTransfers",
      "outputs": [],
      "payable": false,
      "stateMutability": "nonpayable",
      "type": "function"
    },
    {
      "constant": false,
      "inputs": [
        {
          "name": "_admin",
          "type": "address"
        },
        {
          "name": "_permission",
          "type": "bool"
        }
      ],
      "name": "setAdmin",
      "outputs": [],
      "payable": false,
      "stateMutability": "nonpayable",
      "type": "function"
    },
    {
      "constant": true,
      "inputs": [
        {
          "name": "_token",
          "type": "address"
        },
        {
          "name": "_amount",
          "type": "uint256"
        }
      ],
      "name": "checkMint",
      "outputs": [
        {
          "name": "",
          "type": "bool"
        }
      ],
      "payable": false,
      "stateMutability": "view",
      "type": "function"
    },
    {
      "constant": false,
      "inputs": [
        {
          "name": "_token",
          "type": "address"
        },
        {
          "name": "_spender",
          "type": "address"
        },
        {
          "name": "_from",
          "type": "address"
        },
        {
          "name": "_to",
          "type": "address"
        },
        {
          "name": "_amount",
          "type": "uint256"
        }
      ],
      "name": "check",
      "outputs": [
        {
          "name": "",
          "type": "uint8"
        }
      ],
      "payable": false,
      "stateMutability": "nonpayable",
      "type": "function"
    },
    {
      "constant": true,
      "inputs": [
        {
          "name": "_token",
          "type": "address"
        }
      ],
      "name": "_wholeToken",
      "outputs": [
        {
          "name": "",
          "type": "uint256"
        }
      ],
      "payable": false,
      "stateMutability": "view",
      "type": "function"
    },
    {
      "constant": true,
      "inputs": [
        {
          "name": "_admin",
          "type": "address"
        }
      ],
      "name": "isAdmin",
      "outputs": [
        {
          "name": "",
          "type": "bool"
        }
      ],
      "payable": false,
      "stateMutability": "view",
      "type": "function"
    },
    {
      "constant": true,
      "inputs": [
        {
          "name": "_token",
          "type": "address"
        },
        {
          "name": "_from",
          "type": "address"
        },
        {
          "name": "_to",
          "type": "address"
        }
      ],
      "name": "getStatus",
      "outputs": [
        {
          "name": "",
          "type": "bool"
        },
        {
          "name": "",
          "type": "bool"
        },
        {
          "name": "",
          "type": "uint8"
        },
        {
          "name": "",
          "type": "uint8"
        },
        {
          "name": "",
          "type": "uint256"
        }
      ],
      "payable": false,
      "stateMutability": "view",
      "type": "function"
    },
    {
      "constant": true,
      "inputs": [
        {
          "name": "_token",
          "type": "address"
        },
        {
          "name": "_amount",
          "type": "uint256"
        }
      ],
      "name": "checkPartialTransfer",
      "outputs": [
        {
          "name": "",
          "type": "uint256"
        }
      ],
      "payable": false,
      "stateMutability": "view",
      "type": "function"
    }
  ],
  "bytecode": "0x608060405234801561001057600080fd5b50336000806101000a81548173ffffffffffffffffffffffffffffffffffffffff021916908373ffffffffffffffffffffffffffffffffffffffff16021790555060018060003373ffffffffffffffffffffffffffffffffffffffff1673ffffffffffffffffffffffffffffffffffffffff16815260200190815260200160002060006101000a81548160ff021916908315150217905550611839806100b76000396000f3006080604052600436106100e6576000357c0100000000000000000000000000000000000000000000000000000000900463ffffffff16806309e69ede146100eb57806324d7806c14610148578063429b62e5146101a35780634b0bddd2146101fe5780637913cac11461024d578063803fcd43146103145780638da5cb5b146103db57806392f9611514610432578063d3edcb0a14610481578063dd5ddfe8146104d8578063e2373ab314610528578063e2898bd514610595578063e6e6af46146105fa578063edbbd39b14610649578063f27c5f6e146106aa578063f2fde38b146106f7575b600080fd5b3480156100f757600080fd5b5061012c600480360381019080803573ffffffffffffffffffffffffffffffffffffffff16906020019092919050505061073a565b604051808260ff1660ff16815260200191505060405180910390f35b34801561015457600080fd5b50610189600480360381019080803573ffffffffffffffffffffffffffffffffffffffff16906020019092919050505061075a565b604051808215151515815260200191505060405180910390f35b3480156101af57600080fd5b506101e4600480360381019080803573ffffffffffffffffffffffffffffffffffffffff1690602001909291905050506107b0565b604051808215151515815260200191505060405180910390f35b34801561020a57600080fd5b5061024b600480360381019080803573ffffffffffffffffffffffffffffffffffffffff1690602001909291908035151590602001909291905050506107d0565b005b34801561025957600080fd5b506102ce600480360381019080803573ffffffffffffffffffffffffffffffffffffffff169060200190929190803573ffffffffffffffffffffffffffffffffffffffff169060200190929190803573ffffffffffffffffffffffffffffffffffffffff1690602001909291905050506109e6565b6040518086151515158152602001851515151581526020018460ff1660ff1681526020018360ff1660ff1681526020018281526020019550505050505060405180910390f35b34801561032057600080fd5b506103bf600480360381019080803573ffffffffffffffffffffffffffffffffffffffff169060200190929190803573ffffffffffffffffffffffffffffffffffffffff169060200190929190803573ffffffffffffffffffffffffffffffffffffffff169060200190929190803573ffffffffffffffffffffffffffffffffffffffff16906020019092919080359060200190929190505050610b80565b604051808260ff1660ff16815260200191505060405180910390f35b3480156103e757600080fd5b506103f0610d34565b604051808273ffffffffffffffffffffffffffffffffffffffff1673ffffffffffffffffffffffffffffffffffffffff16815260200191505060405180910390f35b34801561043e57600080fd5b5061047f600480360381019080803573ffffffffffffffffffffffffffffffffffffffff169060200190929190803515159060200190929190505050610d59565b005b34801561048d57600080fd5b506104c2600480360381019080803573ffffffffffffffffffffffffffffffffffffffff169060200190929190505050610ecd565b6040518082815260200191505060405180910390f35b3480156104e457600080fd5b50610526600480360381019080803573ffffffffffffffffffffffffffffffffffffffff169060200190929190803560ff169060200190929190505050610f7b565b005b34801561053457600080fd5b50610569600480360381019080803573ffffffffffffffffffffffffffffffffffffffff1690602001909291905050506110ec565b604051808415151515815260200183151515158152602001828152602001935050505060405180910390f35b3480156105a157600080fd5b506105e0600480360381019080803573ffffffffffffffffffffffffffffffffffffffff16906020019092919080359060200190929190505050611130565b604051808215151515815260200191505060405180910390f35b34801561060657600080fd5b50610647600480360381019080803573ffffffffffffffffffffffffffffffffffffffff169060200190929190803515159060200190929190505050611225565b005b34801561065557600080fd5b50610694600480360381019080803573ffffffffffffffffffffffffffffffffffffffff16906020019092919080359060200190929190505050611396565b6040518082815260200191505060405180910390f35b3480156106b657600080fd5b506106f5600480360381019080803573ffffffffffffffffffffffffffffffffffffffff169060200190929190803590602001909291905050506113b4565b005b34801561070357600080fd5b50610738600480360381019080803573ffffffffffffffffffffffffffffffffffffffff16906020019092919050505061164f565b005b60036020528060005260406000206000915054906101000a900460ff1681565b6000600160008373ffffffffffffffffffffffffffffffffffffffff1673ffffffffffffffffffffffffffffffffffffffff16815260200190815260200160002060009054906101000a900460ff169050919050565b60016020528060005260406000206000915054906101000a900460ff1681565b6000809054906101000a900473ffffffffffffffffffffffffffffffffffffffff1673ffffffffffffffffffffffffffffffffffffffff163373ffffffffffffffffffffffffffffffffffffffff16141515610894576040517f08c379a000000000000000000000000000000000000000000000000000000000815260040180806020018281038252601c8152602001807f53656e646572206973206e6f7420636f6e7472616374206f776e65720000000081525060200191505060405180910390fd5b600073ffffffffffffffffffffffffffffffffffffffff168273ffffffffffffffffffffffffffffffffffffffff1614151515610939576040517f08c379a00000000000000000000000000000000000000000000000000000000081526004018080602001828103825260148152602001807f616464726573732063616e6e6f7420626520307800000000000000000000000081525060200191505060405180910390fd5b80600160008473ffffffffffffffffffffffffffffffffffffffff1673ffffffffffffffffffffffffffffffffffffffff16815260200190815260200160002060006101000a81548160ff0219169083151502179055508173ffffffffffffffffffffffffffffffffffffffff167f231f2bec93460f991d4094ce244f20096c6a54f991debcb158853e7b289ef95682604051808215151515815260200191505060405180910390a25050565b6000806000806000600260008973ffffffffffffffffffffffffffffffffffffffff1673ffffffffffffffffffffffffffffffffffffffff16815260200190815260200160002060000160009054906101000a900460ff16600260008a73ffffffffffffffffffffffffffffffffffffffff1673ffffffffffffffffffffffffffffffffffffffff16815260200190815260200160002060000160019054906101000a900460ff16600360008a73ffffffffffffffffffffffffffffffffffffffff1673ffffffffffffffffffffffffffffffffffffffff16815260200190815260200160002060009054906101000a900460ff16600360008a73ffffffffffffffffffffffffffffffffffffffff1673ffffffffffffffffffffffffffffffffffffffff16815260200190815260200160002060009054906101000a900460ff16600260008d73ffffffffffffffffffffffffffffffffffffffff1673ffffffffffffffffffffffffffffffffffffffff1681526020019081526020016000206001015494509450945094509450939792965093509350565b6000600260008773ffffffffffffffffffffffffffffffffffffffff1673ffffffffffffffffffffffffffffffffffffffff16815260200190815260200160002060000160009054906101000a900460ff161515610be15760019050610d2b565b60006001600360008773ffffffffffffffffffffffffffffffffffffffff1673ffffffffffffffffffffffffffffffffffffffff16815260200190815260200160002060009054906101000a900460ff161660ff161415610c455760039050610d2b565b60006002600360008673ffffffffffffffffffffffffffffffffffffffff1673ffffffffffffffffffffffffffffffffffffffff16815260200190815260200160002060009054906101000a900460ff161660ff161415610ca95760049050610d2b565b600260008773ffffffffffffffffffffffffffffffffffffffff1673ffffffffffffffffffffffffffffffffffffffff16815260200190815260200160002060000160019054906101000a900460ff161515610d26576000610d0a87610ecd565b83811515610d1457fe5b06141515610d255760029050610d2b565b5b600090505b95945050505050565b6000809054906101000a900473ffffffffffffffffffffffffffffffffffffffff1681565b6000809054906101000a900473ffffffffffffffffffffffffffffffffffffffff1673ffffffffffffffffffffffffffffffffffffffff163373ffffffffffffffffffffffffffffffffffffffff16141515610e1d576040517f08c379a000000000000000000000000000000000000000000000000000000000815260040180806020018281038252601c8152602001807f53656e646572206973206e6f7420636f6e7472616374206f776e65720000000081525060200191505060405180910390fd5b80600260008473ffffffffffffffffffffffffffffffffffffffff1673ffffffffffffffffffffffffffffffffffffffff16815260200190815260200160002060000160016101000a81548160ff0219169083151502179055508173ffffffffffffffffffffffffffffffffffffffff167f85d37ec694752aafe8ff3ea3fb045641ded9ae08224d069215d88722175a8db882604051808215151515815260200191505060405180910390a25050565b60008173ffffffffffffffffffffffffffffffffffffffff1663313ce5676040518163ffffffff167c0100000000000000000000000000000000000000000000000000000000028152600401602060405180830381600087803b158015610f3357600080fd5b505af1158015610f47573d6000803e3d6000fd5b505050506040513d6020811015610f5d57600080fd5b810190808051906020019092919050505060ff16600a0a9050919050565b600160003373ffffffffffffffffffffffffffffffffffffffff1673ffffffffffffffffffffffffffffffffffffffff16815260200190815260200160002060009054906101000a900460ff16151561103c576040517f08c379a00000000000000000000000000000000000000000000000000000000081526004018080602001828103825260138152602001807f73656e646572206973206e6f742061646d696e0000000000000000000000000081525060200191505060405180910390fd5b80600360008473ffffffffffffffffffffffffffffffffffffffff1673ffffffffffffffffffffffffffffffffffffffff16815260200190815260200160002060006101000a81548160ff021916908360ff1602179055508173ffffffffffffffffffffffffffffffffffffffff167fbd83161ebb244fa4e9c48e3b466226999e32c06fb5122861b24b95aab1813ffc82604051808260ff1660ff16815260200191505060405180910390a25050565b60026020528060005260406000206000915090508060000160009054906101000a900460ff16908060000160019054906101000a900460ff16908060010154905083565b6000808373ffffffffffffffffffffffffffffffffffffffff166318160ddd6040518163ffffffff167c0100000000000000000000000000000000000000000000000000000000028152600401602060405180830381600087803b15801561119757600080fd5b505af11580156111ab573d6000803e3d6000fd5b505050506040513d60208110156111c157600080fd5b81019080805190602001909291905050509050600260008573ffffffffffffffffffffffffffffffffffffffff1673ffffffffffffffffffffffffffffffffffffffff16815260200190815260200160002060010154838201111591505092915050565b600160003373ffffffffffffffffffffffffffffffffffffffff1673ffffffffffffffffffffffffffffffffffffffff16815260200190815260200160002060009054906101000a900460ff1615156112e6576040517f08c379a00000000000000000000000000000000000000000000000000000000081526004018080602001828103825260138152602001807f73656e646572206973206e6f742061646d696e0000000000000000000000000081525060200191505060405180910390fd5b80600260008473ffffffffffffffffffffffffffffffffffffffff1673ffffffffffffffffffffffffffffffffffffffff16815260200190815260200160002060000160006101000a81548160ff0219169083151502179055508173ffffffffffffffffffffffffffffffffffffffff167f0a12157eaf7bc78c797f32f0756efb6a90d605759d6e535a278033ec487d176682604051808215151515815260200191505060405180910390a25050565b60006113a183610ecd565b828115156113ab57fe5b06905092915050565b6000600160003373ffffffffffffffffffffffffffffffffffffffff1673ffffffffffffffffffffffffffffffffffffffff16815260200190815260200160002060009054906101000a900460ff161515611477576040517f08c379a00000000000000000000000000000000000000000000000000000000081526004018080602001828103825260138152602001807f73656e646572206973206e6f742061646d696e0000000000000000000000000081525060200191505060405180910390fd5b8273ffffffffffffffffffffffffffffffffffffffff166318160ddd6040518163ffffffff167c0100000000000000000000000000000000000000000000000000000000028152600401602060405180830381600087803b1580156114db57600080fd5b505af11580156114ef573d6000803e3d6000fd5b505050506040513d602081101561150557600080fd5b8101908080519060200190929190505050905080821115156115b5576040517f08c379a00000000000000000000000000000000000000000000000000000000081526004018080602001828103825260338152602001807f6d696e74696e6720616c6c6f77616e63652073686f756c64206265206772656181526020017f746572207468616e2074686520737570706c790000000000000000000000000081525060400191505060405180910390fd5b81600260008573ffffffffffffffffffffffffffffffffffffffff1673ffffffffffffffffffffffffffffffffffffffff168152602001908152602001600020600101819055508273ffffffffffffffffffffffffffffffffffffffff167f8fe74a1bbab5a9534a04463cd7b9423b985ed316426821cace8ed4aeac5a4d14836040518082815260200191505060405180910390a2505050565b6000809054906101000a900473ffffffffffffffffffffffffffffffffffffffff1673ffffffffffffffffffffffffffffffffffffffff163373ffffffffffffffffffffffffffffffffffffffff16141515611713576040517f08c379a000000000000000000000000000000000000000000000000000000000815260040180806020018281038252601c8152602001807f53656e646572206973206e6f7420636f6e7472616374206f776e65720000000081525060200191505060405180910390fd5b600073ffffffffffffffffffffffffffffffffffffffff168173ffffffffffffffffffffffffffffffffffffffff161415151561174f57600080fd5b8073ffffffffffffffffffffffffffffffffffffffff166000809054906101000a900473ffffffffffffffffffffffffffffffffffffffff1673ffffffffffffffffffffffffffffffffffffffff167f8be0079c531659141344cd1fd0a4f28419497f9722a3daafe3b4186f6b6457e060405160405180910390a3806000806101000a81548173ffffffffffffffffffffffffffffffffffffffff021916908373ffffffffffffffffffffffffffffffffffffffff160217905550505600a165627a7a7230582087f786cccd17012251448f36d6ca9aa09383d4391600deb59db0f7dba63b67650029",
  "source": "pragma solidity ^0.4.25;\r\n\r\nimport '../utils/Ownable.sol';\r\nimport './MetamorphRegulatorInterface.sol';\r\nimport '../ERC20/R_ERC20Detailed.sol';\r\n\r\n/**\r\n * @title  On-chain RegulatorService implementation for approving trades\r\n */\r\ncontract MetamorphTokenRegulator is MetamorphRegulatorInterface, Ownable {\r\n  /**\r\n   * @dev Throws if called by any account other than the admin\r\n   */\r\n  modifier onlyAdmins() {\r\n    require(admins[msg.sender], \"sender is not admin\");\r\n    _;\r\n  }\r\n\r\n  /// @dev Settings that affect token trading at a global level\r\n  struct Settings {\r\n\r\n    /**\r\n     * @dev Toggle for locking/unlocking trades at a token level.\r\n     *      The default will be set to to locked\r\n     */\r\n    bool unlocked;\r\n\r\n    /**\r\n     * @dev Toggle for allowing/disallowing fractional token trades at a token level.\r\n     *      The default state when this contract is created `false` (or no partial\r\n     *      transfers allowed).\r\n     */\r\n    bool partialTransfers;\r\n\r\n    /**\r\n    * @dev We set the maximum of minting allowance\r\n    */\r\n    uint256 mintAllowance;\r\n}\r\n\r\n  // @dev Check success code\r\n  uint8 constant private CHECK_SUCCESS = 0;\r\n\r\n  // @dev Check error reason: Token is locked\r\n  uint8 constant private CHECK_ELOCKED = 1;\r\n\r\n  // @dev Check error reason: Token can not trade partial amounts\r\n  uint8 constant private CHECK_EDIVIS = 2;\r\n\r\n  // @dev Check error reason: Sender is not allowed to send the token\r\n  uint8 constant private CHECK_ESEND = 3;\r\n\r\n  // @dev Check error reason: Receiver is not allowed to receive the token\r\n  uint8 constant private CHECK_ERECV = 4;\r\n\r\n  /// @dev Permission bits for allowing a participant to send tokens\r\n  uint8 constant private PERM_SEND = 0x1;\r\n\r\n  /// @dev Permission bits for allowing a participant to receive tokens\r\n  uint8 constant private PERM_RECEIVE = 0x2;\r\n\r\n  // @dev mapping of the administrators\r\n  mapping(address => bool) public admins;\r\n\r\n  /// @notice Permissions that allow/disallow token trades on a per token level\r\n  mapping(address => Settings) public settings;\r\n\r\n  /// @dev Permissions that allow/disallow token trades on a per participant basis.\r\n  ///      The format for key based access is `participants[participantAddress]`\r\n  ///      which returns the permission bits of a participant\r\n  mapping(address => uint8) public participants;\r\n\r\n  /// @dev Event raised when a token's locked setting is set\r\n  event LogLockSet(address indexed token, bool locked);\r\n\r\n  /// @dev Event raised when a participant permissions are set\r\n  event LogPermissionSet(address indexed participant, uint8 permission);\r\n\r\n   /// @dev Event raised when a token's partial transfer setting is set\r\n  event LogPartialTransferSet(address indexed token, bool enabled);\r\n\r\n  /// @dev Event raised when the admin priviledges changes\r\n  event LogAdmin(address indexed admin, bool isAdmin);\r\n\r\n  /// @dev Mint Allowance\r\n  event MintAllowance(address indexed token, uint256 mintAllowance);\r\n\r\n  constructor() public {\r\n    admins[msg.sender] = true;\r\n  }\r\n\r\n  /**\r\n   * @notice Locks the ability to trade a token\r\n   *\r\n   * @dev    This method can only be called by this contract's owner\r\n   *\r\n   * @param  _token The address of the token to lock\r\n   * @param  _unlocked true to allow trades, false to lock to lock the token\r\n   */\r\n  function setUnlocked(address _token, bool _unlocked) public onlyAdmins {\r\n    settings[_token].unlocked = _unlocked;\r\n    emit LogLockSet(_token, _unlocked);\r\n  }\r\n\r\n  function setMintAllowance(address _token, uint256 _mintAllowance) public onlyAdmins {\r\n    uint256 totalSupply = R_ERC20Detailed(_token).totalSupply();\r\n    require(_mintAllowance > totalSupply, \"minting allowance should be greater than the supply\");\r\n    settings[_token].mintAllowance = _mintAllowance;\r\n    emit MintAllowance(_token, _mintAllowance);\r\n  }\r\n\r\n  /**\r\n   * @notice Sets the trade permissions for a participant on a token\r\n   *\r\n   * @dev    The `_permission` bits overwrite the previous trade permissions and can\r\n   *         only be called by the admins.  `_permissions` can be bitwise\r\n   *         `|`'d together to allow for more than one permission bit to be set.\r\n   *\r\n   * @param  _participant The address of the trade participant\r\n   * @param  _permission Permission bits to be set\r\n   */\r\n  function setPermission(address _participant, uint8 _permission) public onlyAdmins {\r\n    participants[_participant] = _permission;\r\n    emit LogPermissionSet(_participant, _permission);\r\n  }\r\n\r\n  /**\r\n   * @notice Allows the ability to trade a fraction of a token\r\n   *\r\n   * @dev    This method can only be called by this contract's owner\r\n   *\r\n   * @param  _token The address of the token to allow partial transfers\r\n   */\r\n  function setPartialTransfers(address _token, bool _enabled) onlyOwner public {\r\n   settings[_token].partialTransfers = _enabled;\r\n\r\n   emit LogPartialTransferSet(_token, _enabled);\r\n  }\r\n\r\n  /**\r\n   * @dev Allows the owner to transfer admin controls to newAdmin.\r\n   *\r\n   * @param _admin The address to transfer admin rights to.\r\n   */\r\n  function setAdmin(address _admin, bool _permission) public onlyOwner {\r\n    require(_admin != address(0), \"address cannot be 0x\");\r\n    admins[_admin] = _permission;\r\n    emit LogAdmin(_admin, _permission);\r\n  }\r\n\r\n  /**\r\n   * @dev Allows the owner mint tokens depending of the allowance set.\r\n   *\r\n   * @param _token The address of the token to mint\r\n   * @param _amount The amount to mint\r\n   */\r\n  function checkMint(address _token, uint256 _amount) public view returns (bool) {\r\n    uint256 totalSupply = R_ERC20Detailed(_token).totalSupply();\r\n    return(totalSupply + _amount <= settings[_token].mintAllowance);\r\n  }\r\n\r\n  /**\r\n   * @notice Checks whether or not a trade should be approved\r\n   *\r\n   * @dev    This method calls back to the token contract specified by `_token` for\r\n   *         information needed to enforce trade approval if needed\r\n   *\r\n   * @param  _token The address of the token to be transfered\r\n   * @param  _spender The address of the spender of the token (unused in this implementation)\r\n   * @param  _from The address of the sender account\r\n   * @param  _to The address of the receiver account\r\n   * @param  _amount amoun to be transfered\r\n   *\r\n   * @return `true` if the trade should be approved and `false` if the trade should not be approved\r\n   */\r\n  function check(address _token, address _spender, address _from, address _to, uint256 _amount) public returns (uint8) {\r\n     if (!settings[_token].unlocked) {\r\n      return CHECK_ELOCKED;\r\n    }\r\n\r\n    if (participants[_from] & PERM_SEND == 0) {\r\n      return CHECK_ESEND;\r\n    }\r\n\r\n    if (participants[_to] & PERM_RECEIVE == 0) {\r\n      return CHECK_ERECV;\r\n    }\r\n\r\n    if (!settings[_token].partialTransfers) {\r\n      if(_amount % _wholeToken(_token) != 0){\r\n        return CHECK_EDIVIS;\r\n      }\r\n    }\r\n\r\n    return CHECK_SUCCESS;\r\n  }\r\n\r\n  /**\r\n   * @notice Retrieves the whole token value from a token that this `MetamorphTokenRegulator` manages\r\n   *\r\n   * @param  _token The token address of the managed token\r\n   *\r\n   * @return The uint256 value that represents a single whole token\r\n   */\r\n  function _wholeToken(address _token) public view returns (uint256) {\r\n    return uint256(10)**R_ERC20Detailed(_token).decimals();\r\n  }\r\n\r\n  function isAdmin(address _admin) public view returns (bool) {\r\n    return admins[_admin];\r\n  }\r\n\r\n  function getStatus(address _token, address _from, address _to) public view returns (bool, bool, uint8, uint8, uint256) {\r\n    return(\r\n      settings[_token].unlocked,\r\n      settings[_token].partialTransfers,\r\n      participants[_from],\r\n      participants[_to],\r\n      settings[_token].mintAllowance\r\n    );\r\n  }\r\n\r\n  function checkPartialTransfer(address _token, uint256 _amount) public view returns (uint256) {\r\n    return _amount % _wholeToken(_token);\r\n  }\r\n}",
  "sourcePath": "E:\\Ethereum\\METM\\MetamorphTokenCreation\\src\\app\\ethereum\\contracts\\rToken\\MetamorphTokenRegulator.sol",
  "compiler": {
    "name": "solc",
    "version": "0.4.25+commit.59dbf8f1.Emscripten.clang"
  },
  "schemaVersion": "2.0.2",
  "updatedAt": "2019-07-17T04:09:42.156Z"
}