{
  "contractName": "UtilityTokenFactory",
  "abi": [
    {
      "constant": true,
      "inputs": [],
      "name": "metmToken",
      "outputs": [
        {
          "name": "",
          "type": "address"
        }
      ],
      "payable": false,
      "stateMutability": "view",
      "type": "function"
    },
    {
      "constant": true,
      "inputs": [],
      "name": "owner",
      "outputs": [
        {
          "name": "",
          "type": "address"
        }
      ],
      "payable": false,
      "stateMutability": "view",
      "type": "function"
    },
    {
      "constant": true,
      "inputs": [],
      "name": "price",
      "outputs": [
        {
          "name": "",
          "type": "uint256"
        }
      ],
      "payable": false,
      "stateMutability": "view",
      "type": "function"
    },
    {
      "constant": false,
      "inputs": [
        {
          "name": "newOwner",
          "type": "address"
        }
      ],
      "name": "transferOwnership",
      "outputs": [],
      "payable": false,
      "stateMutability": "nonpayable",
      "type": "function"
    },
    {
      "inputs": [
        {
          "name": "_token",
          "type": "address"
        },
        {
          "name": "_price",
          "type": "uint256"
        },
        {
          "name": "_fundsHolder",
          "type": "address"
        }
      ],
      "payable": false,
      "stateMutability": "nonpayable",
      "type": "constructor"
    },
    {
      "anonymous": false,
      "inputs": [
        {
          "indexed": true,
          "name": "previousOwner",
          "type": "address"
        },
        {
          "indexed": true,
          "name": "newOwner",
          "type": "address"
        }
      ],
      "name": "OwnershipTransferred",
      "type": "event"
    },
    {
      "anonymous": false,
      "inputs": [
        {
          "indexed": true,
          "name": "_issuer",
          "type": "address"
        },
        {
          "indexed": false,
          "name": "_symbol",
          "type": "string"
        },
        {
          "indexed": false,
          "name": "_name",
          "type": "string"
        },
        {
          "indexed": false,
          "name": "_initialSupply",
          "type": "uint256"
        },
        {
          "indexed": false,
          "name": "_decimals",
          "type": "uint8"
        }
      ],
      "name": "Issued",
      "type": "event"
    },
    {
      "constant": false,
      "inputs": [
        {
          "name": "_fundsHolder",
          "type": "address"
        }
      ],
      "name": "setFundsHolderAddress",
      "outputs": [],
      "payable": false,
      "stateMutability": "nonpayable",
      "type": "function"
    },
    {
      "constant": false,
      "inputs": [
        {
          "name": "_price",
          "type": "uint256"
        }
      ],
      "name": "setPrice",
      "outputs": [],
      "payable": false,
      "stateMutability": "nonpayable",
      "type": "function"
    },
    {
      "constant": false,
      "inputs": [
        {
          "name": "_symbol",
          "type": "string"
        },
        {
          "name": "_name",
          "type": "string"
        },
        {
          "name": "_initialSupply",
          "type": "uint256"
        },
        {
          "name": "_decimals",
          "type": "uint8"
        },
        {
          "name": "_mintable",
          "type": "bool"
        },
        {
          "name": "_burnable",
          "type": "bool"
        }
      ],
      "name": "createToken",
      "outputs": [],
      "payable": false,
      "stateMutability": "nonpayable",
      "type": "function"
    },
    {
      "constant": true,
      "inputs": [
        {
          "name": "_issuer",
          "type": "address"
        }
      ],
      "name": "getAlltokens",
      "outputs": [
        {
          "name": "",
          "type": "address[]"
        }
      ],
      "payable": false,
      "stateMutability": "view",
      "type": "function"
    },
    {
      "constant": true,
      "inputs": [
        {
          "name": "_issuer",
          "type": "address"
        },
        {
          "name": "_token",
          "type": "address"
        }
      ],
      "name": "getInfo",
      "outputs": [
        {
          "name": "",
          "type": "uint256"
        },
        {
          "name": "",
          "type": "string"
        },
        {
          "name": "",
          "type": "string"
        },
        {
          "name": "",
          "type": "uint8"
        },
        {
          "name": "",
          "type": "uint256"
        },
        {
          "name": "",
          "type": "uint256"
        },
        {
          "name": "",
          "type": "bool"
        },
        {
          "name": "",
          "type": "bool"
        }
      ],
      "payable": false,
      "stateMutability": "view",
      "type": "function"
    },
    {
      "constant": true,
      "inputs": [],
      "name": "getNumOfTokens",
      "outputs": [
        {
          "name": "",
          "type": "uint256"
        }
      ],
      "payable": false,
      "stateMutability": "view",
      "type": "function"
    },
    {
      "constant": true,
      "inputs": [],
      "name": "getNumOfIssuers",
      "outputs": [
        {
          "name": "",
          "type": "uint256"
        }
      ],
      "payable": false,
      "stateMutability": "view",
      "type": "function"
    },
    {
      "constant": true,
      "inputs": [],
      "name": "getFundsHolderAddress",
      "outputs": [
        {
          "name": "",
          "type": "address"
        }
      ],
      "payable": false,
      "stateMutability": "view",
      "type": "function"
    }
  ],
  "bytecode": "0x608060405234801561001057600080fd5b5060405160608061431383398101806040528101908080519060200190929190805190602001909291908051906020019092919050505033600760006101000a81548173ffffffffffffffffffffffffffffffffffffffff021916908373ffffffffffffffffffffffffffffffffffffffff160217905550600073ffffffffffffffffffffffffffffffffffffffff168373ffffffffffffffffffffffffffffffffffffffff161415151561012d576040517f08c379a00000000000000000000000000000000000000000000000000000000081526004018080602001828103825260198152602001807f546f6b656e20616464726573732063616e6e6f7420626520300000000000000081525060200191505060405180910390fd5b6000821115156101a5576040517f08c379a000000000000000000000000000000000000000000000000000000000815260040180806020018281038252601b8152602001807f70726963652073686f756c64206265206d6f7265207468616e2030000000000081525060200191505060405180910390fd5b600073ffffffffffffffffffffffffffffffffffffffff168173ffffffffffffffffffffffffffffffffffffffff1614151515610270576040517f08c379a00000000000000000000000000000000000000000000000000000000081526004018080602001828103825260228152602001807f46756e6473486f6c64657220616464726573732063616e6e6f74206265207a6581526020017f726f00000000000000000000000000000000000000000000000000000000000081525060400191505060405180910390fd5b826000806101000a81548173ffffffffffffffffffffffffffffffffffffffff021916908373ffffffffffffffffffffffffffffffffffffffff1602179055508160038190555080600460006101000a81548173ffffffffffffffffffffffffffffffffffffffff021916908373ffffffffffffffffffffffffffffffffffffffff1602179055505050506140098061030a6000396000f300608060405260043610620000c7576000357c0100000000000000000000000000000000000000000000000000000000900463ffffffff1680633e9d569814620000cc5780635124097114620001265780637d3dae6914620001545780638da5cb5b14620001ae57806391b7f5ed1462000208578063944a15001462000238578063a035b1fe14620002d5578063a22a83de1462000303578063c686554e1462000349578063cb5cc7af14620004d2578063f2fde38b1462000557578063f92d5756146200059d575b600080fd5b348015620000d957600080fd5b50620000e4620005cb565b604051808273ffffffffffffffffffffffffffffffffffffffff1673ffffffffffffffffffffffffffffffffffffffff16815260200191505060405180910390f35b3480156200013357600080fd5b506200013e620005f5565b6040518082815260200191505060405180910390f35b3480156200016157600080fd5b506200016c62000602565b604051808273ffffffffffffffffffffffffffffffffffffffff1673ffffffffffffffffffffffffffffffffffffffff16815260200191505060405180910390f35b348015620001bb57600080fd5b50620001c662000627565b604051808273ffffffffffffffffffffffffffffffffffffffff1673ffffffffffffffffffffffffffffffffffffffff16815260200191505060405180910390f35b3480156200021557600080fd5b5062000236600480360381019080803590602001909291905050506200064d565b005b3480156200024557600080fd5b506200027c600480360381019080803573ffffffffffffffffffffffffffffffffffffffff16906020019092919050505062000796565b6040518080602001828103825283818151815260200191508051906020019060200280838360005b83811015620002c1578082015181840152602081019050620002a4565b505050509050019250505060405180910390f35b348015620002e257600080fd5b50620002ed62000865565b6040518082815260200191505060405180910390f35b3480156200031057600080fd5b5062000347600480360381019080803573ffffffffffffffffffffffffffffffffffffffff1690602001909291905050506200086b565b005b3480156200035657600080fd5b50620003ad600480360381019080803573ffffffffffffffffffffffffffffffffffffffff169060200190929190803573ffffffffffffffffffffffffffffffffffffffff16906020019092919050505062000a1b565b6040518089815260200180602001806020018860ff1660ff168152602001878152602001868152602001851515151581526020018415151515815260200183810383528a818151815260200191508051906020019080838360005b838110156200042557808201518184015260208101905062000408565b50505050905090810190601f168015620004535780820380516001836020036101000a031916815260200191505b50838103825289818151815260200191508051906020019080838360005b838110156200048e57808201518184015260208101905062000471565b50505050905090810190601f168015620004bc5780820380516001836020036101000a031916815260200191505b509a505050505050505050505060405180910390f35b348015620004df57600080fd5b506200055560048036038101908080359060200190820180359060200191909192939192939080359060200190820180359060200191909192939192939080359060200190929190803560ff16906020019092919080351515906020019092919080351515906020019092919050505062000f38565b005b3480156200056457600080fd5b506200059b600480360381019080803573ffffffffffffffffffffffffffffffffffffffff16906020019092919050505062001c05565b005b348015620005aa57600080fd5b50620005b562001dc8565b6040518082815260200191505060405180910390f35b6000600460009054906101000a900473ffffffffffffffffffffffffffffffffffffffff16905090565b6000600280549050905090565b6000809054906101000a900473ffffffffffffffffffffffffffffffffffffffff1681565b600760009054906101000a900473ffffffffffffffffffffffffffffffffffffffff1681565b600760009054906101000a900473ffffffffffffffffffffffffffffffffffffffff1673ffffffffffffffffffffffffffffffffffffffff163373ffffffffffffffffffffffffffffffffffffffff1614151562000713576040517f08c379a000000000000000000000000000000000000000000000000000000000815260040180806020018281038252601c8152602001807f53656e646572206973206e6f7420636f6e7472616374206f776e65720000000081525060200191505060405180910390fd5b6000811115156200078c576040517f08c379a00000000000000000000000000000000000000000000000000000000081526004018080602001828103825260118152602001807f50726963652063616e6e6f74206265203000000000000000000000000000000081525060200191505060405180910390fd5b8060038190555050565b6060600560008373ffffffffffffffffffffffffffffffffffffffff1673ffffffffffffffffffffffffffffffffffffffff1681526020019081526020016000208054806020026020016040519081016040528092919081815260200182805480156200085957602002820191906000526020600020905b8160009054906101000a900473ffffffffffffffffffffffffffffffffffffffff1673ffffffffffffffffffffffffffffffffffffffff16815260200190600101908083116200080e575b50505050509050919050565b60035481565b600760009054906101000a900473ffffffffffffffffffffffffffffffffffffffff1673ffffffffffffffffffffffffffffffffffffffff163373ffffffffffffffffffffffffffffffffffffffff1614151562000931576040517f08c379a000000000000000000000000000000000000000000000000000000000815260040180806020018281038252601c8152602001807f53656e646572206973206e6f7420636f6e7472616374206f776e65720000000081525060200191505060405180910390fd5b600073ffffffffffffffffffffffffffffffffffffffff168173ffffffffffffffffffffffffffffffffffffffff1614151515620009d7576040517f08c379a00000000000000000000000000000000000000000000000000000000081526004018080602001828103825260148152602001807f616464726573732063616e6e6f7420626520307800000000000000000000000081525060200191505060405180910390fd5b80600460006101000a81548173ffffffffffffffffffffffffffffffffffffffff021916908373ffffffffffffffffffffffffffffffffffffffff16021790555050565b6000606080600080600080600062000a3262001dd5565b6000600660008d73ffffffffffffffffffffffffffffffffffffffff1673ffffffffffffffffffffffffffffffffffffffff16815260200190815260200160002060008c73ffffffffffffffffffffffffffffffffffffffff1673ffffffffffffffffffffffffffffffffffffffff16815260200190815260200160002060a060405190810160405290816000820154815260200160018201548152602001600282018054600181600116156101000203166002900480601f01602080910402602001604051908101604052809291908181526020018280546001816001161561010002031660029004801562000b6d5780601f1062000b415761010080835404028352916020019162000b6d565b820191906000526020600020905b81548152906001019060200180831162000b4f57829003601f168201915b50505050508152602001600382018054600181600116156101000203166002900480601f01602080910402602001604051908101604052809291908181526020018280546001816001161561010002031660029004801562000c135780601f1062000be75761010080835404028352916020019162000c13565b820191906000526020600020905b81548152906001019060200180831162000bf557829003601f168201915b505050505081526020016004820160009054906101000a900473ffffffffffffffffffffffffffffffffffffffff1673ffffffffffffffffffffffffffffffffffffffff1673ffffffffffffffffffffffffffffffffffffffff168152505091508a90508160200151826040015183606001518373ffffffffffffffffffffffffffffffffffffffff1663313ce5676040518163ffffffff167c0100000000000000000000000000000000000000000000000000000000028152600401602060405180830381600087803b15801562000ceb57600080fd5b505af115801562000d00573d6000803e3d6000fd5b505050506040513d602081101562000d1757600080fd5b81019080805190602001909291905050508473ffffffffffffffffffffffffffffffffffffffff166318160ddd6040518163ffffffff167c0100000000000000000000000000000000000000000000000000000000028152600401602060405180830381600087803b15801562000d8d57600080fd5b505af115801562000da2573d6000803e3d6000fd5b505050506040513d602081101562000db957600080fd5b810190808051906020019092919050505086600001518673ffffffffffffffffffffffffffffffffffffffff16634bf365df6040518163ffffffff167c0100000000000000000000000000000000000000000000000000000000028152600401602060405180830381600087803b15801562000e3457600080fd5b505af115801562000e49573d6000803e3d6000fd5b505050506040513d602081101562000e6057600080fd5b81019080805190602001909291905050508773ffffffffffffffffffffffffffffffffffffffff1663a07c7ce46040518163ffffffff167c0100000000000000000000000000000000000000000000000000000000028152600401602060405180830381600087803b15801562000ed657600080fd5b505af115801562000eeb573d6000803e3d6000fd5b505050506040513d602081101562000f0257600080fd5b81019080805190602001909291905050508696508595509950995099509950995099509950995050509295985092959890939650565b600062000f4462001dd5565b60028a8a90501015151562000fe7576040517f08c379a00000000000000000000000000000000000000000000000000000000081526004018080602001828103825260238152602001807f53796d626f6c206c656e6774682073686f756c64206265206d6f72652074686181526020017f6e2032000000000000000000000000000000000000000000000000000000000081525060400191505060405180910390fd5b600288889050101515156200108a576040517f08c379a00000000000000000000000000000000000000000000000000000000081526004018080602001828103825260218152602001807f4e616d65206c656e6774682073686f756c64206265206d6f7265207468616e2081526020017f320000000000000000000000000000000000000000000000000000000000000081525060400191505060405180910390fd5b600086101515156200112a576040517f08c379a00000000000000000000000000000000000000000000000000000000081526004018080602001828103825260258152602001807f537570706c792068617320746f206265206d6f7265206f7220657175616c207481526020017f68616e203000000000000000000000000000000000000000000000000000000081525060400191505060405180910390fd5b60008560ff16111515620011a6576040517f08c379a000000000000000000000000000000000000000000000000000000000815260040180806020018281038252601e8152602001807f446563696d616c732068617320746f206265206d6f7265207468616e2030000081525060200191505060405180910390fd5b6003546000809054906101000a900473ffffffffffffffffffffffffffffffffffffffff1673ffffffffffffffffffffffffffffffffffffffff1663dd62ed3e33306040518363ffffffff167c0100000000000000000000000000000000000000000000000000000000028152600401808373ffffffffffffffffffffffffffffffffffffffff1673ffffffffffffffffffffffffffffffffffffffff1681526020018273ffffffffffffffffffffffffffffffffffffffff1673ffffffffffffffffffffffffffffffffffffffff16815260200192505050602060405180830381600087803b1580156200129a57600080fd5b505af1158015620012af573d6000803e3d6000fd5b505050506040513d6020811015620012c657600080fd5b8101908080519060200190929190505050101515156200134e576040517f08c379a00000000000000000000000000000000000000000000000000000000081526004018080602001828103825260158152602001807f496e737566666963656e7420616c6c6f77616e6365000000000000000000000081525060200191505060405180910390fd5b6000809054906101000a900473ffffffffffffffffffffffffffffffffffffffff1673ffffffffffffffffffffffffffffffffffffffff166323b872dd33600460009054906101000a900473ffffffffffffffffffffffffffffffffffffffff166003546040518463ffffffff167c0100000000000000000000000000000000000000000000000000000000028152600401808473ffffffffffffffffffffffffffffffffffffffff1673ffffffffffffffffffffffffffffffffffffffff1681526020018373ffffffffffffffffffffffffffffffffffffffff1673ffffffffffffffffffffffffffffffffffffffff1681526020018281526020019350505050602060405180830381600087803b1580156200146b57600080fd5b505af115801562001480573d6000803e3d6000fd5b505050506040513d60208110156200149757600080fd5b810190808051906020019092919050505015156200151d576040517f08c379a00000000000000000000000000000000000000000000000000000000081526004018080602001828103825260098152602001807f45564d204572726f72000000000000000000000000000000000000000000000081525060200191505060405180910390fd5b87878b8b888a89896200152f62001e1b565b8080602001806020018760ff1660ff168152602001868152602001851515151581526020018415151515815260200183810383528b8b828181526020019250808284378201915050838103825289898281815260200192508082843782019150509a5050505050505050505050604051809103906000f080158015620015b9573d6000803e3d6000fd5b50915060a060405190810160405280428152602001600354815260200189898080601f01602080910402602001604051908101604052809392919081815260200183838082843782019150505050505081526020018b8b8080601f01602080910402602001604051908101604052809392919081815260200183838082843782019150505050505081526020018373ffffffffffffffffffffffffffffffffffffffff168152509050600560003373ffffffffffffffffffffffffffffffffffffffff1673ffffffffffffffffffffffffffffffffffffffff1681526020019081526020016000208290806001815401808255809150509060018203906000526020600020016000909192909190916101000a81548173ffffffffffffffffffffffffffffffffffffffff021916908373ffffffffffffffffffffffffffffffffffffffff1602179055505080600660003373ffffffffffffffffffffffffffffffffffffffff1673ffffffffffffffffffffffffffffffffffffffff16815260200190815260200160002060008473ffffffffffffffffffffffffffffffffffffffff1673ffffffffffffffffffffffffffffffffffffffff16815260200190815260200160002060008201518160000155602082015181600101556040820151816002019080519060200190620017b492919062001e2c565b506060820151816003019080519060200190620017d392919062001e2c565b5060808201518160040160006101000a81548173ffffffffffffffffffffffffffffffffffffffff021916908373ffffffffffffffffffffffffffffffffffffffff16021790555090505060013390806001815401808255809150509060018203906000526020600020016000909192909190916101000a81548173ffffffffffffffffffffffffffffffffffffffff021916908373ffffffffffffffffffffffffffffffffffffffff1602179055505060028290806001815401808255809150509060018203906000526020600020016000909192909190916101000a81548173ffffffffffffffffffffffffffffffffffffffff021916908373ffffffffffffffffffffffffffffffffffffffff160217905550508173ffffffffffffffffffffffffffffffffffffffff1663a9059cbb338473ffffffffffffffffffffffffffffffffffffffff166370a08231306040518263ffffffff167c0100000000000000000000000000000000000000000000000000000000028152600401808273ffffffffffffffffffffffffffffffffffffffff1673ffffffffffffffffffffffffffffffffffffffff168152602001915050602060405180830381600087803b158015620019a357600080fd5b505af1158015620019b8573d6000803e3d6000fd5b505050506040513d6020811015620019cf57600080fd5b81019080805190602001909291905050506040518363ffffffff167c0100000000000000000000000000000000000000000000000000000000028152600401808373ffffffffffffffffffffffffffffffffffffffff1673ffffffffffffffffffffffffffffffffffffffff16815260200182815260200192505050602060405180830381600087803b15801562001a6657600080fd5b505af115801562001a7b573d6000803e3d6000fd5b505050506040513d602081101562001a9257600080fd5b8101908080519060200190929190505050508173ffffffffffffffffffffffffffffffffffffffff1663f2fde38b336040518263ffffffff167c0100000000000000000000000000000000000000000000000000000000028152600401808273ffffffffffffffffffffffffffffffffffffffff1673ffffffffffffffffffffffffffffffffffffffff168152602001915050600060405180830381600087803b15801562001b4057600080fd5b505af115801562001b55573d6000803e3d6000fd5b505050503373ffffffffffffffffffffffffffffffffffffffff167f258efb82ab90425754cca9fefa2ccebd38cca94c2c66d7154e66d589a5f4baa18b8b8b8b8b8b6040518080602001806020018581526020018460ff1660ff16815260200183810383528989828181526020019250808284378201915050838103825287878281815260200192508082843782019150509850505050505050505060405180910390a250505050505050505050565b600760009054906101000a900473ffffffffffffffffffffffffffffffffffffffff1673ffffffffffffffffffffffffffffffffffffffff163373ffffffffffffffffffffffffffffffffffffffff1614151562001ccb576040517f08c379a000000000000000000000000000000000000000000000000000000000815260040180806020018281038252601c8152602001807f53656e646572206973206e6f7420636f6e7472616374206f776e65720000000081525060200191505060405180910390fd5b600073ffffffffffffffffffffffffffffffffffffffff168173ffffffffffffffffffffffffffffffffffffffff161415151562001d0857600080fd5b8073ffffffffffffffffffffffffffffffffffffffff16600760009054906101000a900473ffffffffffffffffffffffffffffffffffffffff1673ffffffffffffffffffffffffffffffffffffffff167f8be0079c531659141344cd1fd0a4f28419497f9722a3daafe3b4186f6b6457e060405160405180910390a380600760006101000a81548173ffffffffffffffffffffffffffffffffffffffff021916908373ffffffffffffffffffffffffffffffffffffffff16021790555050565b6000600180549050905090565b60a06040519081016040528060008152602001600081526020016060815260200160608152602001600073ffffffffffffffffffffffffffffffffffffffff1681525090565b6040516121028062001edc83390190565b828054600181600116156101000203166002900490600052602060002090601f016020900481019282601f1062001e6f57805160ff191683800117855562001ea0565b8280016001018555821562001ea0579182015b8281111562001e9f57825182559160200191906001019062001e82565b5b50905062001eaf919062001eb3565b5090565b62001ed891905b8082111562001ed457600081600090555060010162001eba565b5090565b90560060806040523480156200001157600080fd5b506040516200210238038062002102833981018060405281019080805182019291906020018051820192919060200180519060200190929190805190602001909291908051906020019092919080519060200190929190505050336000806101000a81548173ffffffffffffffffffffffffffffffffffffffff021916908373ffffffffffffffffffffffffffffffffffffffff160217905550620000c5336200019d640100000000026401000000009004565b8560059080519060200190620000dd9291906200049a565b508460069080519060200190620000f69291906200049a565b5083600760006101000a81548160ff021916908360ff1602179055508260038190555082600160003373ffffffffffffffffffffffffffffffffffffffff1673ffffffffffffffffffffffffffffffffffffffff1681526020019081526020016000208190555081600760016101000a81548160ff02191690831515021790555080600760026101000a81548160ff02191690831515021790555050505050505062000549565b620001c181600462000207640100000000026200187a179091906401000000009004565b8073ffffffffffffffffffffffffffffffffffffffff167f6ae172837ea30b801fbfcdd4108aa1d5bf8ff775444fd70256b44e6bf3dfc3f660405160405180910390a250565b600073ffffffffffffffffffffffffffffffffffffffff168173ffffffffffffffffffffffffffffffffffffffff1614151515620002ad576040517f08c379a00000000000000000000000000000000000000000000000000000000081526004018080602001828103825260148152602001807f616464726573732063616e6e6f7420626520307800000000000000000000000081525060200191505060405180910390fd5b620002c882826200039c640100000000026401000000009004565b1515156200033e576040517f08c379a00000000000000000000000000000000000000000000000000000000081526004018080602001828103825260178152602001807f6163636f756e7420616c726561647920696e20726f6c6500000000000000000081525060200191505060405180910390fd5b60018260000160008373ffffffffffffffffffffffffffffffffffffffff1673ffffffffffffffffffffffffffffffffffffffff16815260200190815260200160002060006101000a81548160ff0219169083151502179055505050565b60008073ffffffffffffffffffffffffffffffffffffffff168273ffffffffffffffffffffffffffffffffffffffff161415151562000443576040517f08c379a00000000000000000000000000000000000000000000000000000000081526004018080602001828103825260148152602001807f616464726573732063616e6e6f7420626520307800000000000000000000000081525060200191505060405180910390fd5b8260000160008373ffffffffffffffffffffffffffffffffffffffff1673ffffffffffffffffffffffffffffffffffffffff16815260200190815260200160002060009054906101000a900460ff16905092915050565b828054600181600116156101000203166002900490600052602060002090601f016020900481019282601f10620004dd57805160ff19168380011785556200050e565b828001600101855582156200050e579182015b828111156200050d578251825591602001919060010190620004f0565b5b5090506200051d919062000521565b5090565b6200054691905b808211156200054257600081600090555060010162000528565b5090565b90565b611ba980620005596000396000f300608060405260043610610128576000357c0100000000000000000000000000000000000000000000000000000000900463ffffffff16806306fdde031461012d578063095ea7b3146101bd57806318160ddd1461022257806323b872dd1461024d578063313ce567146102d257806339509351146103035780633eaaf86b1461036857806340c10f191461039357806342966c68146103f85780634bf365df1461043d5780636ebcf6071461046c57806370a08231146104c35780638da5cb5b1461051a57806395d89b4114610571578063983b2d56146106015780639865027514610644578063a07c7ce41461065b578063a457c2d71461068a578063a9059cbb146106ef578063aa271e1a14610754578063dd62ed3e146107af578063f2fde38b14610826575b600080fd5b34801561013957600080fd5b50610142610869565b6040518080602001828103825283818151815260200191508051906020019080838360005b83811015610182578082015181840152602081019050610167565b50505050905090810190601f1680156101af5780820380516001836020036101000a031916815260200191505b509250505060405180910390f35b3480156101c957600080fd5b50610208600480360381019080803573ffffffffffffffffffffffffffffffffffffffff1690602001909291908035906020019092919050505061090b565b604051808215151515815260200191505060405180910390f35b34801561022e57600080fd5b50610237610922565b6040518082815260200191505060405180910390f35b34801561025957600080fd5b506102b8600480360381019080803573ffffffffffffffffffffffffffffffffffffffff169060200190929190803573ffffffffffffffffffffffffffffffffffffffff1690602001909291908035906020019092919050505061092c565b604051808215151515815260200191505060405180910390f35b3480156102de57600080fd5b506102e76109dd565b604051808260ff1660ff16815260200191505060405180910390f35b34801561030f57600080fd5b5061034e600480360381019080803573ffffffffffffffffffffffffffffffffffffffff169060200190929190803590602001909291905050506109f4565b604051808215151515815260200191505060405180910390f35b34801561037457600080fd5b5061037d610a99565b6040518082815260200191505060405180910390f35b34801561039f57600080fd5b506103de600480360381019080803573ffffffffffffffffffffffffffffffffffffffff16906020019092919080359060200190929190505050610a9f565b604051808215151515815260200191505060405180910390f35b34801561040457600080fd5b5061042360048036038101908080359060200190929190505050610b36565b604051808215151515815260200191505060405180910390f35b34801561044957600080fd5b50610452610bcb565b604051808215151515815260200191505060405180910390f35b34801561047857600080fd5b506104ad600480360381019080803573ffffffffffffffffffffffffffffffffffffffff169060200190929190505050610bde565b6040518082815260200191505060405180910390f35b3480156104cf57600080fd5b50610504600480360381019080803573ffffffffffffffffffffffffffffffffffffffff169060200190929190505050610bf6565b6040518082815260200191505060405180910390f35b34801561052657600080fd5b5061052f610c3f565b604051808273ffffffffffffffffffffffffffffffffffffffff1673ffffffffffffffffffffffffffffffffffffffff16815260200191505060405180910390f35b34801561057d57600080fd5b50610586610c64565b6040518080602001828103825283818151815260200191508051906020019080838360005b838110156105c65780820151818401526020810190506105ab565b50505050905090810190601f1680156105f35780820380516001836020036101000a031916815260200191505b509250505060405180910390f35b34801561060d57600080fd5b50610642600480360381019080803573ffffffffffffffffffffffffffffffffffffffff169060200190929190505050610d06565b005b34801561065057600080fd5b50610659610d26565b005b34801561066757600080fd5b50610670610d31565b604051808215151515815260200191505060405180910390f35b34801561069657600080fd5b506106d5600480360381019080803573ffffffffffffffffffffffffffffffffffffffff16906020019092919080359060200190929190505050610d44565b604051808215151515815260200191505060405180910390f35b3480156106fb57600080fd5b5061073a600480360381019080803573ffffffffffffffffffffffffffffffffffffffff16906020019092919080359060200190929190505050610de9565b604051808215151515815260200191505060405180910390f35b34801561076057600080fd5b50610795600480360381019080803573ffffffffffffffffffffffffffffffffffffffff169060200190929190505050610e00565b604051808215151515815260200191505060405180910390f35b3480156107bb57600080fd5b50610810600480360381019080803573ffffffffffffffffffffffffffffffffffffffff169060200190929190803573ffffffffffffffffffffffffffffffffffffffff169060200190929190505050610e1d565b6040518082815260200191505060405180910390f35b34801561083257600080fd5b50610867600480360381019080803573ffffffffffffffffffffffffffffffffffffffff169060200190929190505050610ea4565b005b606060058054600181600116156101000203166002900480601f0160208091040260200160405190810160405280929190818152602001828054600181600116156101000203166002900480156109015780601f106108d657610100808354040283529160200191610901565b820191906000526020600020905b8154815290600101906020018083116108e457829003601f168201915b5050505050905090565b6000610918338484611062565b6001905092915050565b6000600354905090565b60006109398484846111c5565b6109d284336109cd85600260008a73ffffffffffffffffffffffffffffffffffffffff1673ffffffffffffffffffffffffffffffffffffffff16815260200190815260200160002060003373ffffffffffffffffffffffffffffffffffffffff1673ffffffffffffffffffffffffffffffffffffffff1681526020019081526020016000205461139590919063ffffffff16565b611062565b600190509392505050565b6000600760009054906101000a900460ff16905090565b6000610a8f3384610a8a85600260003373ffffffffffffffffffffffffffffffffffffffff1673ffffffffffffffffffffffffffffffffffffffff16815260200190815260200160002060008973ffffffffffffffffffffffffffffffffffffffff1673ffffffffffffffffffffffffffffffffffffffff168152602001908152602001600020546113ae90919063ffffffff16565b611062565b6001905092915050565b60035481565b6000600760019054906101000a900460ff161515610b25576040517f08c379a00000000000000000000000000000000000000000000000000000000081526004018080602001828103825260158152602001807f546f6b656e206973206e6f74206d696e7461626c65000000000000000000000081525060200191505060405180910390fd5b610b2f83836113ca565b5092915050565b6000600760029054906101000a900460ff161515610bbc576040517f08c379a00000000000000000000000000000000000000000000000000000000081526004018080602001828103825260158152602001807f546f6b656e206973206e6f74206275726e61626c65000000000000000000000081525060200191505060405180910390fd5b610bc5826113f4565b50919050565b600760019054906101000a900460ff1681565b60016020528060005260406000206000915090505481565b6000600160008373ffffffffffffffffffffffffffffffffffffffff1673ffffffffffffffffffffffffffffffffffffffff168152602001908152602001600020549050919050565b6000809054906101000a900473ffffffffffffffffffffffffffffffffffffffff1681565b606060068054600181600116156101000203166002900480601f016020809104026020016040519081016040528092919081815260200182805460018160011615610100020316600290048015610cfc5780601f10610cd157610100808354040283529160200191610cfc565b820191906000526020600020905b815481529060010190602001808311610cdf57829003601f168201915b5050505050905090565b610d0f33610e00565b1515610d1a57600080fd5b610d238161141d565b50565b610d2f33611477565b565b600760029054906101000a900460ff1681565b6000610ddf3384610dda85600260003373ffffffffffffffffffffffffffffffffffffffff1673ffffffffffffffffffffffffffffffffffffffff16815260200190815260200160002060008973ffffffffffffffffffffffffffffffffffffffff1673ffffffffffffffffffffffffffffffffffffffff1681526020019081526020016000205461139590919063ffffffff16565b611062565b6001905092915050565b6000610df63384846111c5565b6001905092915050565b6000610e168260046114d190919063ffffffff16565b9050919050565b6000600260008473ffffffffffffffffffffffffffffffffffffffff1673ffffffffffffffffffffffffffffffffffffffff16815260200190815260200160002060008373ffffffffffffffffffffffffffffffffffffffff1673ffffffffffffffffffffffffffffffffffffffff16815260200190815260200160002054905092915050565b6000809054906101000a900473ffffffffffffffffffffffffffffffffffffffff1673ffffffffffffffffffffffffffffffffffffffff163373ffffffffffffffffffffffffffffffffffffffff16141515610f68576040517f08c379a000000000000000000000000000000000000000000000000000000000815260040180806020018281038252601c8152602001807f53656e646572206973206e6f7420636f6e7472616374206f776e65720000000081525060200191505060405180910390fd5b600073ffffffffffffffffffffffffffffffffffffffff168173ffffffffffffffffffffffffffffffffffffffff1614151515610fa457600080fd5b8073ffffffffffffffffffffffffffffffffffffffff166000809054906101000a900473ffffffffffffffffffffffffffffffffffffffff1673ffffffffffffffffffffffffffffffffffffffff167f8be0079c531659141344cd1fd0a4f28419497f9722a3daafe3b4186f6b6457e060405160405180910390a3806000806101000a81548173ffffffffffffffffffffffffffffffffffffffff021916908373ffffffffffffffffffffffffffffffffffffffff16021790555050565b600073ffffffffffffffffffffffffffffffffffffffff168273ffffffffffffffffffffffffffffffffffffffff161415151561109e57600080fd5b600073ffffffffffffffffffffffffffffffffffffffff168373ffffffffffffffffffffffffffffffffffffffff16141515156110da57600080fd5b80600260008573ffffffffffffffffffffffffffffffffffffffff1673ffffffffffffffffffffffffffffffffffffffff16815260200190815260200160002060008473ffffffffffffffffffffffffffffffffffffffff1673ffffffffffffffffffffffffffffffffffffffff168152602001908152602001600020819055508173ffffffffffffffffffffffffffffffffffffffff168373ffffffffffffffffffffffffffffffffffffffff167f8c5be1e5ebec7d5bd14f71427d1e84f3dd0314c0f7b2291e5b200ac8c7c3b925836040518082815260200191505060405180910390a3505050565b600073ffffffffffffffffffffffffffffffffffffffff168273ffffffffffffffffffffffffffffffffffffffff161415151561120157600080fd5b61125381600160008673ffffffffffffffffffffffffffffffffffffffff1673ffffffffffffffffffffffffffffffffffffffff1681526020019081526020016000205461139590919063ffffffff16565b600160008573ffffffffffffffffffffffffffffffffffffffff1673ffffffffffffffffffffffffffffffffffffffff168152602001908152602001600020819055506112e881600160008573ffffffffffffffffffffffffffffffffffffffff1673ffffffffffffffffffffffffffffffffffffffff168152602001908152602001600020546113ae90919063ffffffff16565b600160008473ffffffffffffffffffffffffffffffffffffffff1673ffffffffffffffffffffffffffffffffffffffff168152602001908152602001600020819055508173ffffffffffffffffffffffffffffffffffffffff168373ffffffffffffffffffffffffffffffffffffffff167fddf252ad1be2c89b69c2b068fc378daa952ba7f163c4a11628f55a4df523b3ef836040518082815260200191505060405180910390a3505050565b60008282111515156113a357fe5b818303905092915050565b600081830190508281101515156113c157fe5b80905092915050565b60006113d533610e00565b15156113e057600080fd5b6113ea83836115ce565b6001905092915050565b60006113ff33610e00565b151561140a57600080fd5b6114143383611724565b60019050919050565b61143181600461187a90919063ffffffff16565b8073ffffffffffffffffffffffffffffffffffffffff167f6ae172837ea30b801fbfcdd4108aa1d5bf8ff775444fd70256b44e6bf3dfc3f660405160405180910390a250565b61148b8160046119fc90919063ffffffff16565b8073ffffffffffffffffffffffffffffffffffffffff167fe94479a9f7e1952cc78f2d6baab678adc1b772d936c6583def489e524cb6669260405160405180910390a250565b60008073ffffffffffffffffffffffffffffffffffffffff168273ffffffffffffffffffffffffffffffffffffffff1614151515611577576040517f08c379a00000000000000000000000000000000000000000000000000000000081526004018080602001828103825260148152602001807f616464726573732063616e6e6f7420626520307800000000000000000000000081525060200191505060405180910390fd5b8260000160008373ffffffffffffffffffffffffffffffffffffffff1673ffffffffffffffffffffffffffffffffffffffff16815260200190815260200160002060009054906101000a900460ff16905092915050565b600073ffffffffffffffffffffffffffffffffffffffff168273ffffffffffffffffffffffffffffffffffffffff161415151561160a57600080fd5b61161f816003546113ae90919063ffffffff16565b60038190555061167781600160008573ffffffffffffffffffffffffffffffffffffffff1673ffffffffffffffffffffffffffffffffffffffff168152602001908152602001600020546113ae90919063ffffffff16565b600160008473ffffffffffffffffffffffffffffffffffffffff1673ffffffffffffffffffffffffffffffffffffffff168152602001908152602001600020819055508173ffffffffffffffffffffffffffffffffffffffff16600073ffffffffffffffffffffffffffffffffffffffff167fddf252ad1be2c89b69c2b068fc378daa952ba7f163c4a11628f55a4df523b3ef836040518082815260200191505060405180910390a35050565b600073ffffffffffffffffffffffffffffffffffffffff168273ffffffffffffffffffffffffffffffffffffffff161415151561176057600080fd5b6117758160035461139590919063ffffffff16565b6003819055506117cd81600160008573ffffffffffffffffffffffffffffffffffffffff1673ffffffffffffffffffffffffffffffffffffffff1681526020019081526020016000205461139590919063ffffffff16565b600160008473ffffffffffffffffffffffffffffffffffffffff1673ffffffffffffffffffffffffffffffffffffffff16815260200190815260200160002081905550600073ffffffffffffffffffffffffffffffffffffffff168273ffffffffffffffffffffffffffffffffffffffff167fddf252ad1be2c89b69c2b068fc378daa952ba7f163c4a11628f55a4df523b3ef836040518082815260200191505060405180910390a35050565b600073ffffffffffffffffffffffffffffffffffffffff168173ffffffffffffffffffffffffffffffffffffffff161415151561191f576040517f08c379a00000000000000000000000000000000000000000000000000000000081526004018080602001828103825260148152602001807f616464726573732063616e6e6f7420626520307800000000000000000000000081525060200191505060405180910390fd5b61192982826114d1565b15151561199e576040517f08c379a00000000000000000000000000000000000000000000000000000000081526004018080602001828103825260178152602001807f6163636f756e7420616c726561647920696e20726f6c6500000000000000000081525060200191505060405180910390fd5b60018260000160008373ffffffffffffffffffffffffffffffffffffffff1673ffffffffffffffffffffffffffffffffffffffff16815260200190815260200160002060006101000a81548160ff0219169083151502179055505050565b600073ffffffffffffffffffffffffffffffffffffffff168173ffffffffffffffffffffffffffffffffffffffff1614151515611aa1576040517f08c379a00000000000000000000000000000000000000000000000000000000081526004018080602001828103825260148152602001807f616464726573732063616e6e6f7420626520307800000000000000000000000081525060200191505060405180910390fd5b611aab82826114d1565b1515611b1f576040517f08c379a00000000000000000000000000000000000000000000000000000000081526004018080602001828103825260138152602001807f6163636f756e74206e6f7420696e20726f6c650000000000000000000000000081525060200191505060405180910390fd5b60008260000160008373ffffffffffffffffffffffffffffffffffffffff1673ffffffffffffffffffffffffffffffffffffffff16815260200190815260200160002060006101000a81548160ff02191690831515021790555050505600a165627a7a72305820e190859b1f79c19e49cc317f179decca39e4949ef35176bdc8dde9c2a8c925aa0029a165627a7a723058200c066efc60c8b92a9a2874b021b839f73cc19dbca97fed57932ed5f38c56ba630029",
  "source": "pragma solidity ^0.4.25;\r\n\r\nimport \"../utils/Ownable.sol\";\r\nimport \"../ERC20/ERC20.sol\";\r\nimport \"./UtilityFactoryInterface.sol\";\r\nimport \"../ERC20/ERC20Detailed.sol\";\r\n\r\n\r\n/**\r\n * @title UtilityTokenFactory\r\n */\r\ncontract UtilityTokenFactory is UtilityFactoryInterface, Ownable {\r\n\r\n    constructor(address _token, uint256 _price, address _fundsHolder) public {\r\n        require(_token != address(0), \"Token address cannot be 0\");\r\n        require(_price > 0, \"price should be more than 0\");\r\n        require(_fundsHolder != address(0), \"FundsHolder address cannot be zero\");\r\n        metmToken = _token;\r\n        price = _price;\r\n        fundsHolder = FundsHolder(_fundsHolder);\r\n    }\r\n\r\n    function setFundsHolderAddress(address _fundsHolder) external onlyOwner {\r\n        require(_fundsHolder!=address(0), \"address cannot be 0x\");\r\n        fundsHolder = FundsHolder(_fundsHolder);\r\n    }\r\n\r\n    function setPrice(uint256 _price) external onlyOwner {\r\n        require(_price > 0, \"Price cannot be 0\");\r\n        price = _price;\r\n    }\r\n\r\n    function createToken(string _symbol, string _name, uint256 _initialSupply, uint8 _decimals, bool _mintable, bool _burnable) external {\r\n        require(bytes(_symbol).length >= 2, \"Symbol length should be more than 2\");\r\n        require(bytes(_name).length >= 2, \"Name length should be more than 2\");\r\n        require(_initialSupply >= 0, \"Supply has to be more or equal than 0\");\r\n        require(_decimals > 0, \"Decimals has to be more than 0\");\r\n        require(IERC20(metmToken).allowance(msg.sender, address(this)) >= price, \"Insufficent allowance\");\r\n        require(IERC20(metmToken).transferFrom(msg.sender, address(fundsHolder), price), \"EVM Error\");\r\n        ERC20Detailed uToken = new ERC20Detailed(_name, _symbol, _decimals, _initialSupply, _mintable, _burnable);\r\n        TokenSettings memory settings = TokenSettings({\r\n            ts: now,\r\n            price: price,\r\n            name: _name,\r\n            symbol: _symbol,\r\n            tokenAddress: address(uToken)\r\n        });\r\n        issuerTokens[msg.sender].push(address(uToken));\r\n        issuerTokensData[msg.sender][address(uToken)] = settings;\r\n        issuers.push(msg.sender);\r\n        tokens.push(address(uToken));\r\n        uToken.transfer(msg.sender, uToken.balanceOf(this));\r\n        uToken.transferOwnership(msg.sender);\r\n        emit Issued(msg.sender, _symbol, _name, _initialSupply, _decimals);\r\n    }\r\n\r\n    function getAlltokens(address _issuer) public view returns (address[]) {\r\n        return issuerTokens[_issuer];\r\n    }\r\n\r\n    function getInfo(address _issuer, address _token) public view\r\n    returns (uint256, string, string, uint8, uint256, uint256, bool, bool) {\r\n        TokenSettings memory settings = issuerTokensData[_issuer][_token];\r\n        ERC20Detailed uToken = ERC20Detailed(_token);\r\n        return(\r\n            settings.price,\r\n            settings.name,\r\n            settings.symbol,\r\n            uToken.decimals(),\r\n            uToken.totalSupply(),\r\n            settings.ts,\r\n            uToken.mintable(),\r\n            uToken.burnable()\r\n        );\r\n    }\r\n\r\n    function getNumOfTokens() public view returns (uint256) {\r\n        return tokens.length;\r\n    }\r\n\r\n    function getNumOfIssuers() public view returns (uint256) {\r\n        return issuers.length;\r\n    }\r\n\r\n    function getFundsHolderAddress() public view returns (address) {\r\n        return address(fundsHolder);\r\n    }\r\n}",
  "sourcePath": "E:\\Ethereum\\METM\\MetamorphTokenCreation\\src\\app\\ethereum\\contracts\\token_factory\\UtilityTokenFactory.sol",
  "compiler": {
    "name": "solc",
    "version": "0.4.25+commit.59dbf8f1.Emscripten.clang"
  },
  "schemaVersion": "2.0.2",
  "updatedAt": "2019-07-17T04:10:05.544Z"
}